{
	"_Escrow.sol": {
		"Escrow": {
			"abi": [
				{
					"inputs": [
						{
							"internalType": "address",
							"name": "_buyer",
							"type": "address"
						},
						{
							"internalType": "address payable",
							"name": "_seller",
							"type": "address"
						},
						{
							"internalType": "uint256",
							"name": "_price",
							"type": "uint256"
						}
					],
					"stateMutability": "nonpayable",
					"type": "constructor"
				},
				{
					"inputs": [],
					"name": "buyer",
					"outputs": [
						{
							"internalType": "address",
							"name": "",
							"type": "address"
						}
					],
					"stateMutability": "view",
					"type": "function"
				},
				{
					"inputs": [],
					"name": "confirmDelivery",
					"outputs": [],
					"stateMutability": "payable",
					"type": "function"
				},
				{
					"inputs": [],
					"name": "currState",
					"outputs": [
						{
							"internalType": "enum Escrow.State",
							"name": "",
							"type": "uint8"
						}
					],
					"stateMutability": "view",
					"type": "function"
				},
				{
					"inputs": [],
					"name": "deposit",
					"outputs": [],
					"stateMutability": "payable",
					"type": "function"
				},
				{
					"inputs": [],
					"name": "initContract",
					"outputs": [],
					"stateMutability": "nonpayable",
					"type": "function"
				},
				{
					"inputs": [],
					"name": "isBuyerIn",
					"outputs": [
						{
							"internalType": "bool",
							"name": "",
							"type": "bool"
						}
					],
					"stateMutability": "view",
					"type": "function"
				},
				{
					"inputs": [],
					"name": "isSellerIn",
					"outputs": [
						{
							"internalType": "bool",
							"name": "",
							"type": "bool"
						}
					],
					"stateMutability": "view",
					"type": "function"
				},
				{
					"inputs": [],
					"name": "price",
					"outputs": [
						{
							"internalType": "uint256",
							"name": "",
							"type": "uint256"
						}
					],
					"stateMutability": "view",
					"type": "function"
				},
				{
					"inputs": [],
					"name": "seller",
					"outputs": [
						{
							"internalType": "address payable",
							"name": "",
							"type": "address"
						}
					],
					"stateMutability": "view",
					"type": "function"
				},
				{
					"inputs": [],
					"name": "withdraw",
					"outputs": [],
					"stateMutability": "payable",
					"type": "function"
				}
			],
			"devdoc": {
				"kind": "dev",
				"methods": {},
				"version": 1
			},
			"evm": {
				"assembly": "    /* \"_Escrow.sol\":33:1827  contract Escrow{... */\n  mstore(0x40, 0x80)\n    /* \"_Escrow.sol\":698:856  constructor(address _buyer, address payable _seller, uint _price){... */\n  callvalue\n  dup1\n  iszero\n  tag_1\n  jumpi\n  0x00\n  dup1\n  revert\ntag_1:\n  pop\n  mload(0x40)\n  sub(codesize, bytecodeSize)\n  dup1\n  bytecodeSize\n  dup4\n  codecopy\n  dup2\n  dup2\n  add\n  0x40\n  mstore\n  dup2\n  add\n  swap1\n  tag_2\n  swap2\n  swap1\n  tag_3\n  jump\t// in\ntag_2:\n    /* \"_Escrow.sol\":781:787  _buyer */\n  dup3\n    /* \"_Escrow.sol\":773:778  buyer */\n  0x02\n  0x00\n    /* \"_Escrow.sol\":773:787  buyer = _buyer */\n  0x0100\n  exp\n  dup2\n  sload\n  dup2\n  0xffffffffffffffffffffffffffffffffffffffff\n  mul\n  not\n  and\n  swap1\n  dup4\n  0xffffffffffffffffffffffffffffffffffffffff\n  and\n  mul\n  or\n  swap1\n  sstore\n  pop\n    /* \"_Escrow.sol\":806:813  _seller */\n  dup2\n    /* \"_Escrow.sol\":797:803  seller */\n  0x03\n  0x00\n    /* \"_Escrow.sol\":797:813  seller = _seller */\n  0x0100\n  exp\n  dup2\n  sload\n  dup2\n  0xffffffffffffffffffffffffffffffffffffffff\n  mul\n  not\n  and\n  swap1\n  dup4\n  0xffffffffffffffffffffffffffffffffffffffff\n  and\n  mul\n  or\n  swap1\n  sstore\n  pop\n    /* \"_Escrow.sol\":841:848  1 ether */\n  0x0de0b6b3a7640000\n    /* \"_Escrow.sol\":831:837  _price */\n  dup2\n    /* \"_Escrow.sol\":831:849  _price * (1 ether) */\n  tag_6\n  swap2\n  swap1\n  tag_7\n  jump\t// in\ntag_6:\n    /* \"_Escrow.sol\":823:828  price */\n  0x01\n    /* \"_Escrow.sol\":823:849  price = _price * (1 ether) */\n  dup2\n  swap1\n  sstore\n  pop\n    /* \"_Escrow.sol\":698:856  constructor(address _buyer, address payable _seller, uint _price){... */\n  pop\n  pop\n  pop\n    /* \"_Escrow.sol\":33:1827  contract Escrow{... */\n  jump(tag_8)\n    /* \"#utility.yul\":7:150   */\ntag_10:\n    /* \"#utility.yul\":64:69   */\n  0x00\n    /* \"#utility.yul\":95:101   */\n  dup2\n    /* \"#utility.yul\":89:102   */\n  mload\n    /* \"#utility.yul\":80:102   */\n  swap1\n  pop\n    /* \"#utility.yul\":111:144   */\n  tag_12\n    /* \"#utility.yul\":138:143   */\n  dup2\n    /* \"#utility.yul\":111:144   */\n  tag_13\n  jump\t// in\ntag_12:\n    /* \"#utility.yul\":7:150   */\n  swap3\n  swap2\n  pop\n  pop\n  jump\t// out\n    /* \"#utility.yul\":156:315   */\ntag_14:\n    /* \"#utility.yul\":221:226   */\n  0x00\n    /* \"#utility.yul\":252:258   */\n  dup2\n    /* \"#utility.yul\":246:259   */\n  mload\n    /* \"#utility.yul\":237:259   */\n  swap1\n  pop\n    /* \"#utility.yul\":268:309   */\n  tag_16\n    /* \"#utility.yul\":303:308   */\n  dup2\n    /* \"#utility.yul\":268:309   */\n  tag_17\n  jump\t// in\ntag_16:\n    /* \"#utility.yul\":156:315   */\n  swap3\n  swap2\n  pop\n  pop\n  jump\t// out\n    /* \"#utility.yul\":321:464   */\ntag_18:\n    /* \"#utility.yul\":378:383   */\n  0x00\n    /* \"#utility.yul\":409:415   */\n  dup2\n    /* \"#utility.yul\":403:416   */\n  mload\n    /* \"#utility.yul\":394:416   */\n  swap1\n  pop\n    /* \"#utility.yul\":425:458   */\n  tag_20\n    /* \"#utility.yul\":452:457   */\n  dup2\n    /* \"#utility.yul\":425:458   */\n  tag_21\n  jump\t// in\ntag_20:\n    /* \"#utility.yul\":321:464   */\n  swap3\n  swap2\n  pop\n  pop\n  jump\t// out\n    /* \"#utility.yul\":470:1149   */\ntag_3:\n    /* \"#utility.yul\":566:572   */\n  0x00\n    /* \"#utility.yul\":574:580   */\n  dup1\n    /* \"#utility.yul\":582:588   */\n  0x00\n    /* \"#utility.yul\":631:633   */\n  0x60\n    /* \"#utility.yul\":619:628   */\n  dup5\n    /* \"#utility.yul\":610:617   */\n  dup7\n    /* \"#utility.yul\":606:629   */\n  sub\n    /* \"#utility.yul\":602:634   */\n  slt\n    /* \"#utility.yul\":599:718   */\n  iszero\n  tag_23\n  jumpi\n    /* \"#utility.yul\":637:716   */\n  tag_24\n  tag_25\n  jump\t// in\ntag_24:\n    /* \"#utility.yul\":599:718   */\ntag_23:\n    /* \"#utility.yul\":757:758   */\n  0x00\n    /* \"#utility.yul\":782:846   */\n  tag_26\n    /* \"#utility.yul\":838:845   */\n  dup7\n    /* \"#utility.yul\":829:835   */\n  dup3\n    /* \"#utility.yul\":818:827   */\n  dup8\n    /* \"#utility.yul\":814:836   */\n  add\n    /* \"#utility.yul\":782:846   */\n  tag_10\n  jump\t// in\ntag_26:\n    /* \"#utility.yul\":772:846   */\n  swap4\n  pop\n    /* \"#utility.yul\":728:856   */\n  pop\n    /* \"#utility.yul\":895:897   */\n  0x20\n    /* \"#utility.yul\":921:993   */\n  tag_27\n    /* \"#utility.yul\":985:992   */\n  dup7\n    /* \"#utility.yul\":976:982   */\n  dup3\n    /* \"#utility.yul\":965:974   */\n  dup8\n    /* \"#utility.yul\":961:983   */\n  add\n    /* \"#utility.yul\":921:993   */\n  tag_14\n  jump\t// in\ntag_27:\n    /* \"#utility.yul\":911:993   */\n  swap3\n  pop\n    /* \"#utility.yul\":866:1003   */\n  pop\n    /* \"#utility.yul\":1042:1044   */\n  0x40\n    /* \"#utility.yul\":1068:1132   */\n  tag_28\n    /* \"#utility.yul\":1124:1131   */\n  dup7\n    /* \"#utility.yul\":1115:1121   */\n  dup3\n    /* \"#utility.yul\":1104:1113   */\n  dup8\n    /* \"#utility.yul\":1100:1122   */\n  add\n    /* \"#utility.yul\":1068:1132   */\n  tag_18\n  jump\t// in\ntag_28:\n    /* \"#utility.yul\":1058:1132   */\n  swap2\n  pop\n    /* \"#utility.yul\":1013:1142   */\n  pop\n    /* \"#utility.yul\":470:1149   */\n  swap3\n  pop\n  swap3\n  pop\n  swap3\n  jump\t// out\n    /* \"#utility.yul\":1236:1584   */\ntag_7:\n    /* \"#utility.yul\":1276:1283   */\n  0x00\n    /* \"#utility.yul\":1299:1319   */\n  tag_32\n    /* \"#utility.yul\":1317:1318   */\n  dup3\n    /* \"#utility.yul\":1299:1319   */\n  tag_33\n  jump\t// in\ntag_32:\n    /* \"#utility.yul\":1294:1319   */\n  swap2\n  pop\n    /* \"#utility.yul\":1333:1353   */\n  tag_34\n    /* \"#utility.yul\":1351:1352   */\n  dup4\n    /* \"#utility.yul\":1333:1353   */\n  tag_33\n  jump\t// in\ntag_34:\n    /* \"#utility.yul\":1328:1353   */\n  swap3\n  pop\n    /* \"#utility.yul\":1521:1522   */\n  dup2\n    /* \"#utility.yul\":1453:1519   */\n  0xffffffffffffffffffffffffffffffffffffffffffffffffffffffffffffffff\n    /* \"#utility.yul\":1449:1523   */\n  div\n    /* \"#utility.yul\":1446:1447   */\n  dup4\n    /* \"#utility.yul\":1443:1524   */\n  gt\n    /* \"#utility.yul\":1438:1439   */\n  dup3\n    /* \"#utility.yul\":1431:1440   */\n  iszero\n    /* \"#utility.yul\":1424:1441   */\n  iszero\n    /* \"#utility.yul\":1420:1525   */\n  and\n    /* \"#utility.yul\":1417:1548   */\n  iszero\n  tag_35\n  jumpi\n    /* \"#utility.yul\":1528:1546   */\n  tag_36\n  tag_37\n  jump\t// in\ntag_36:\n    /* \"#utility.yul\":1417:1548   */\ntag_35:\n    /* \"#utility.yul\":1576:1577   */\n  dup3\n    /* \"#utility.yul\":1573:1574   */\n  dup3\n    /* \"#utility.yul\":1569:1578   */\n  mul\n    /* \"#utility.yul\":1558:1578   */\n  swap1\n  pop\n    /* \"#utility.yul\":1236:1584   */\n  swap3\n  swap2\n  pop\n  pop\n  jump\t// out\n    /* \"#utility.yul\":1590:1686   */\ntag_38:\n    /* \"#utility.yul\":1627:1634   */\n  0x00\n    /* \"#utility.yul\":1656:1680   */\n  tag_40\n    /* \"#utility.yul\":1674:1679   */\n  dup3\n    /* \"#utility.yul\":1656:1680   */\n  tag_41\n  jump\t// in\ntag_40:\n    /* \"#utility.yul\":1645:1680   */\n  swap1\n  pop\n    /* \"#utility.yul\":1590:1686   */\n  swap2\n  swap1\n  pop\n  jump\t// out\n    /* \"#utility.yul\":1692:1796   */\ntag_42:\n    /* \"#utility.yul\":1737:1744   */\n  0x00\n    /* \"#utility.yul\":1766:1790   */\n  tag_44\n    /* \"#utility.yul\":1784:1789   */\n  dup3\n    /* \"#utility.yul\":1766:1790   */\n  tag_41\n  jump\t// in\ntag_44:\n    /* \"#utility.yul\":1755:1790   */\n  swap1\n  pop\n    /* \"#utility.yul\":1692:1796   */\n  swap2\n  swap1\n  pop\n  jump\t// out\n    /* \"#utility.yul\":1802:1928   */\ntag_41:\n    /* \"#utility.yul\":1839:1846   */\n  0x00\n    /* \"#utility.yul\":1879:1921   */\n  0xffffffffffffffffffffffffffffffffffffffff\n    /* \"#utility.yul\":1872:1877   */\n  dup3\n    /* \"#utility.yul\":1868:1922   */\n  and\n    /* \"#utility.yul\":1857:1922   */\n  swap1\n  pop\n    /* \"#utility.yul\":1802:1928   */\n  swap2\n  swap1\n  pop\n  jump\t// out\n    /* \"#utility.yul\":1934:2011   */\ntag_33:\n    /* \"#utility.yul\":1971:1978   */\n  0x00\n    /* \"#utility.yul\":2000:2005   */\n  dup2\n    /* \"#utility.yul\":1989:2005   */\n  swap1\n  pop\n    /* \"#utility.yul\":1934:2011   */\n  swap2\n  swap1\n  pop\n  jump\t// out\n    /* \"#utility.yul\":2017:2197   */\ntag_37:\n    /* \"#utility.yul\":2065:2142   */\n  0x4e487b7100000000000000000000000000000000000000000000000000000000\n    /* \"#utility.yul\":2062:2063   */\n  0x00\n    /* \"#utility.yul\":2055:2143   */\n  mstore\n    /* \"#utility.yul\":2162:2166   */\n  0x11\n    /* \"#utility.yul\":2159:2160   */\n  0x04\n    /* \"#utility.yul\":2152:2167   */\n  mstore\n    /* \"#utility.yul\":2186:2190   */\n  0x24\n    /* \"#utility.yul\":2183:2184   */\n  0x00\n    /* \"#utility.yul\":2176:2191   */\n  revert\n    /* \"#utility.yul\":2326:2443   */\ntag_25:\n    /* \"#utility.yul\":2435:2436   */\n  0x00\n    /* \"#utility.yul\":2432:2433   */\n  dup1\n    /* \"#utility.yul\":2425:2437   */\n  revert\n    /* \"#utility.yul\":2449:2571   */\ntag_13:\n    /* \"#utility.yul\":2522:2546   */\n  tag_52\n    /* \"#utility.yul\":2540:2545   */\n  dup2\n    /* \"#utility.yul\":2522:2546   */\n  tag_38\n  jump\t// in\ntag_52:\n    /* \"#utility.yul\":2515:2520   */\n  dup2\n    /* \"#utility.yul\":2512:2547   */\n  eq\n    /* \"#utility.yul\":2502:2565   */\n  tag_53\n  jumpi\n    /* \"#utility.yul\":2561:2562   */\n  0x00\n    /* \"#utility.yul\":2558:2559   */\n  dup1\n    /* \"#utility.yul\":2551:2563   */\n  revert\n    /* \"#utility.yul\":2502:2565   */\ntag_53:\n    /* \"#utility.yul\":2449:2571   */\n  pop\n  jump\t// out\n    /* \"#utility.yul\":2577:2715   */\ntag_17:\n    /* \"#utility.yul\":2658:2690   */\n  tag_55\n    /* \"#utility.yul\":2684:2689   */\n  dup2\n    /* \"#utility.yul\":2658:2690   */\n  tag_42\n  jump\t// in\ntag_55:\n    /* \"#utility.yul\":2651:2656   */\n  dup2\n    /* \"#utility.yul\":2648:2691   */\n  eq\n    /* \"#utility.yul\":2638:2709   */\n  tag_56\n  jumpi\n    /* \"#utility.yul\":2705:2706   */\n  0x00\n    /* \"#utility.yul\":2702:2703   */\n  dup1\n    /* \"#utility.yul\":2695:2707   */\n  revert\n    /* \"#utility.yul\":2638:2709   */\ntag_56:\n    /* \"#utility.yul\":2577:2715   */\n  pop\n  jump\t// out\n    /* \"#utility.yul\":2721:2843   */\ntag_21:\n    /* \"#utility.yul\":2794:2818   */\n  tag_58\n    /* \"#utility.yul\":2812:2817   */\n  dup2\n    /* \"#utility.yul\":2794:2818   */\n  tag_33\n  jump\t// in\ntag_58:\n    /* \"#utility.yul\":2787:2792   */\n  dup2\n    /* \"#utility.yul\":2784:2819   */\n  eq\n    /* \"#utility.yul\":2774:2837   */\n  tag_59\n  jumpi\n    /* \"#utility.yul\":2833:2834   */\n  0x00\n    /* \"#utility.yul\":2830:2831   */\n  dup1\n    /* \"#utility.yul\":2823:2835   */\n  revert\n    /* \"#utility.yul\":2774:2837   */\ntag_59:\n    /* \"#utility.yul\":2721:2843   */\n  pop\n  jump\t// out\n    /* \"_Escrow.sol\":33:1827  contract Escrow{... */\ntag_8:\n  dataSize(sub_0)\n  dup1\n  dataOffset(sub_0)\n  0x00\n  codecopy\n  0x00\n  return\nstop\n\nsub_0: assembly {\n        /* \"_Escrow.sol\":33:1827  contract Escrow{... */\n      mstore(0x40, 0x80)\n      jumpi(tag_1, lt(calldatasize, 0x04))\n      shr(0xe0, calldataload(0x00))\n      dup1\n      0x9b3bcb33\n      gt\n      tag_12\n      jumpi\n      dup1\n      0x9b3bcb33\n      eq\n      tag_7\n      jumpi\n      dup1\n      0xa035b1fe\n      eq\n      tag_8\n      jumpi\n      dup1\n      0xafe01043\n      eq\n      tag_9\n      jumpi\n      dup1\n      0xc4bce180\n      eq\n      tag_10\n      jumpi\n      dup1\n      0xd0e30db0\n      eq\n      tag_11\n      jumpi\n      jump(tag_1)\n    tag_12:\n      dup1\n      0x08551a53\n      eq\n      tag_2\n      jumpi\n      dup1\n      0x3ccfd60b\n      eq\n      tag_3\n      jumpi\n      dup1\n      0x5e10177b\n      eq\n      tag_4\n      jumpi\n      dup1\n      0x7150d8ae\n      eq\n      tag_5\n      jumpi\n      dup1\n      0x8203f5fe\n      eq\n      tag_6\n      jumpi\n    tag_1:\n      0x00\n      dup1\n      revert\n        /* \"_Escrow.sol\":419:448  address payable public seller */\n    tag_2:\n      callvalue\n      dup1\n      iszero\n      tag_13\n      jumpi\n      0x00\n      dup1\n      revert\n    tag_13:\n      pop\n      tag_14\n      tag_15\n      jump\t// in\n    tag_14:\n      mload(0x40)\n      tag_16\n      swap2\n      swap1\n      tag_17\n      jump\t// in\n    tag_16:\n      mload(0x40)\n      dup1\n      swap2\n      sub\n      swap1\n      return\n        /* \"_Escrow.sol\":1613:1825  function withdraw () payable public{... */\n    tag_3:\n      tag_18\n      tag_19\n      jump\t// in\n    tag_18:\n      stop\n        /* \"_Escrow.sol\":1398:1607  function confirmDelivery() onlyBuyer payable public{... */\n    tag_4:\n      tag_20\n      tag_21\n      jump\t// in\n    tag_20:\n      stop\n        /* \"_Escrow.sol\":393:413  address public buyer */\n    tag_5:\n      callvalue\n      dup1\n      iszero\n      tag_22\n      jumpi\n      0x00\n      dup1\n      revert\n    tag_22:\n      pop\n      tag_23\n      tag_24\n      jump\t// in\n    tag_23:\n      mload(0x40)\n      tag_25\n      swap2\n      swap1\n      tag_26\n      jump\t// in\n    tag_25:\n      mload(0x40)\n      dup1\n      swap2\n      sub\n      swap1\n      return\n        /* \"_Escrow.sol\":862:1160  function initContract() escrowNotStarted public {... */\n    tag_6:\n      callvalue\n      dup1\n      iszero\n      tag_27\n      jumpi\n      0x00\n      dup1\n      revert\n    tag_27:\n      pop\n      tag_28\n      tag_29\n      jump\t// in\n    tag_28:\n      stop\n        /* \"_Escrow.sol\":340:362  bool public isSellerIn */\n    tag_7:\n      callvalue\n      dup1\n      iszero\n      tag_30\n      jumpi\n      0x00\n      dup1\n      revert\n    tag_30:\n      pop\n      tag_31\n      tag_32\n      jump\t// in\n    tag_31:\n      mload(0x40)\n      tag_33\n      swap2\n      swap1\n      tag_34\n      jump\t// in\n    tag_33:\n      mload(0x40)\n      dup1\n      swap2\n      sub\n      swap1\n      return\n        /* \"_Escrow.sol\":369:386  uint public price */\n    tag_8:\n      callvalue\n      dup1\n      iszero\n      tag_35\n      jumpi\n      0x00\n      dup1\n      revert\n    tag_35:\n      pop\n      tag_36\n      tag_37\n      jump\t// in\n    tag_36:\n      mload(0x40)\n      tag_38\n      swap2\n      swap1\n      tag_39\n      jump\t// in\n    tag_38:\n      mload(0x40)\n      dup1\n      swap2\n      sub\n      swap1\n      return\n        /* \"_Escrow.sol\":285:307  State public currState */\n    tag_9:\n      callvalue\n      dup1\n      iszero\n      tag_40\n      jumpi\n      0x00\n      dup1\n      revert\n    tag_40:\n      pop\n      tag_41\n      tag_42\n      jump\t// in\n    tag_41:\n      mload(0x40)\n      tag_43\n      swap2\n      swap1\n      tag_44\n      jump\t// in\n    tag_43:\n      mload(0x40)\n      dup1\n      swap2\n      sub\n      swap1\n      return\n        /* \"_Escrow.sol\":313:334  bool public isBuyerIn */\n    tag_10:\n      callvalue\n      dup1\n      iszero\n      tag_45\n      jumpi\n      0x00\n      dup1\n      revert\n    tag_45:\n      pop\n      tag_46\n      tag_47\n      jump\t// in\n    tag_46:\n      mload(0x40)\n      tag_48\n      swap2\n      swap1\n      tag_34\n      jump\t// in\n    tag_48:\n      mload(0x40)\n      dup1\n      swap2\n      sub\n      swap1\n      return\n        /* \"_Escrow.sol\":1166:1392  function deposit() onlyBuyer public payable{... */\n    tag_11:\n      tag_49\n      tag_50\n      jump\t// in\n    tag_49:\n      stop\n        /* \"_Escrow.sol\":419:448  address payable public seller */\n    tag_15:\n      0x03\n      0x00\n      swap1\n      sload\n      swap1\n      0x0100\n      exp\n      swap1\n      div\n      0xffffffffffffffffffffffffffffffffffffffff\n      and\n      dup2\n      jump\t// out\n        /* \"_Escrow.sol\":1613:1825  function withdraw () payable public{... */\n    tag_19:\n        /* \"_Escrow.sol\":1679:1702  State.AWAITING_DELIVERY */\n      0x02\n        /* \"_Escrow.sol\":1666:1702  currState == State.AWAITING_DELIVERY */\n      0x03\n      dup2\n      gt\n      iszero\n      tag_52\n      jumpi\n      tag_53\n      tag_54\n      jump\t// in\n    tag_53:\n    tag_52:\n        /* \"_Escrow.sol\":1666:1675  currState */\n      0x00\n      dup1\n      sload\n      swap1\n      0x0100\n      exp\n      swap1\n      div\n      0xff\n      and\n        /* \"_Escrow.sol\":1666:1702  currState == State.AWAITING_DELIVERY */\n      0x03\n      dup2\n      gt\n      iszero\n      tag_55\n      jumpi\n      tag_56\n      tag_54\n      jump\t// in\n    tag_56:\n    tag_55:\n      eq\n        /* \"_Escrow.sol\":1658:1737  require(currState == State.AWAITING_DELIVERY , \"Cannot withdraw at this stage\") */\n      tag_57\n      jumpi\n      mload(0x40)\n      0x08c379a000000000000000000000000000000000000000000000000000000000\n      dup2\n      mstore\n      0x04\n      add\n      tag_58\n      swap1\n      tag_59\n      jump\t// in\n    tag_58:\n      mload(0x40)\n      dup1\n      swap2\n      sub\n      swap1\n      revert\n    tag_57:\n        /* \"_Escrow.sol\":1755:1765  msg.sender */\n      caller\n        /* \"_Escrow.sol\":1747:1775  payable(msg.sender).transfer */\n      0xffffffffffffffffffffffffffffffffffffffff\n      and\n        /* \"_Escrow.sol\":1747:1782  payable(msg.sender).transfer(price) */\n      0x08fc\n        /* \"_Escrow.sol\":1776:1781  price */\n      sload(0x01)\n        /* \"_Escrow.sol\":1747:1782  payable(msg.sender).transfer(price) */\n      swap1\n      dup2\n      iszero\n      mul\n      swap1\n      mload(0x40)\n      0x00\n      mload(0x40)\n      dup1\n      dup4\n      sub\n      dup2\n      dup6\n      dup9\n      dup9\n      call\n      swap4\n      pop\n      pop\n      pop\n      pop\n      iszero\n      dup1\n      iszero\n      tag_61\n      jumpi\n      returndatasize\n      0x00\n      dup1\n      returndatacopy\n      revert(0x00, returndatasize)\n    tag_61:\n      pop\n        /* \"_Escrow.sol\":1804:1818  State.COMPLETE */\n      0x03\n        /* \"_Escrow.sol\":1792:1801  currState */\n      0x00\n      dup1\n        /* \"_Escrow.sol\":1792:1818  currState = State.COMPLETE */\n      0x0100\n      exp\n      dup2\n      sload\n      dup2\n      0xff\n      mul\n      not\n      and\n      swap1\n      dup4\n      0x03\n      dup2\n      gt\n      iszero\n      tag_62\n      jumpi\n      tag_63\n      tag_54\n      jump\t// in\n    tag_63:\n    tag_62:\n      mul\n      or\n      swap1\n      sstore\n      pop\n        /* \"_Escrow.sol\":1613:1825  function withdraw () payable public{... */\n      jump\t// out\n        /* \"_Escrow.sol\":1398:1607  function confirmDelivery() onlyBuyer payable public{... */\n    tag_21:\n        /* \"_Escrow.sol\":528:533  buyer */\n      0x02\n      0x00\n      swap1\n      sload\n      swap1\n      0x0100\n      exp\n      swap1\n      div\n      0xffffffffffffffffffffffffffffffffffffffff\n      and\n        /* \"_Escrow.sol\":514:533  msg.sender == buyer */\n      0xffffffffffffffffffffffffffffffffffffffff\n      and\n        /* \"_Escrow.sol\":514:524  msg.sender */\n      caller\n        /* \"_Escrow.sol\":514:533  msg.sender == buyer */\n      0xffffffffffffffffffffffffffffffffffffffff\n      and\n      eq\n        /* \"_Escrow.sol\":505:572  require( msg.sender == buyer , \"Only buyer can call this function\") */\n      tag_65\n      jumpi\n      mload(0x40)\n      0x08c379a000000000000000000000000000000000000000000000000000000000\n      dup2\n      mstore\n      0x04\n      add\n      tag_66\n      swap1\n      tag_67\n      jump\t// in\n    tag_66:\n      mload(0x40)\n      dup1\n      swap2\n      sub\n      swap1\n      revert\n    tag_65:\n        /* \"_Escrow.sol\":1480:1503  State.AWAITING_DELIVERY */\n      0x02\n        /* \"_Escrow.sol\":1467:1503  currState == State.AWAITING_DELIVERY */\n      0x03\n      dup2\n      gt\n      iszero\n      tag_69\n      jumpi\n      tag_70\n      tag_54\n      jump\t// in\n    tag_70:\n    tag_69:\n        /* \"_Escrow.sol\":1467:1476  currState */\n      0x00\n      dup1\n      sload\n      swap1\n      0x0100\n      exp\n      swap1\n      div\n      0xff\n      and\n        /* \"_Escrow.sol\":1467:1503  currState == State.AWAITING_DELIVERY */\n      0x03\n      dup2\n      gt\n      iszero\n      tag_71\n      jumpi\n      tag_72\n      tag_54\n      jump\t// in\n    tag_72:\n    tag_71:\n      eq\n        /* \"_Escrow.sol\":1459:1532  require(currState == State.AWAITING_DELIVERY , \"Cannot confirm delivery\") */\n      tag_73\n      jumpi\n      mload(0x40)\n      0x08c379a000000000000000000000000000000000000000000000000000000000\n      dup2\n      mstore\n      0x04\n      add\n      tag_74\n      swap1\n      tag_75\n      jump\t// in\n    tag_74:\n      mload(0x40)\n      dup1\n      swap2\n      sub\n      swap1\n      revert\n    tag_73:\n        /* \"_Escrow.sol\":1542:1548  seller */\n      0x03\n      0x00\n      swap1\n      sload\n      swap1\n      0x0100\n      exp\n      swap1\n      div\n      0xffffffffffffffffffffffffffffffffffffffff\n      and\n        /* \"_Escrow.sol\":1542:1557  seller.transfer */\n      0xffffffffffffffffffffffffffffffffffffffff\n      and\n        /* \"_Escrow.sol\":1542:1564  seller.transfer(price) */\n      0x08fc\n        /* \"_Escrow.sol\":1558:1563  price */\n      sload(0x01)\n        /* \"_Escrow.sol\":1542:1564  seller.transfer(price) */\n      swap1\n      dup2\n      iszero\n      mul\n      swap1\n      mload(0x40)\n      0x00\n      mload(0x40)\n      dup1\n      dup4\n      sub\n      dup2\n      dup6\n      dup9\n      dup9\n      call\n      swap4\n      pop\n      pop\n      pop\n      pop\n      iszero\n      dup1\n      iszero\n      tag_77\n      jumpi\n      returndatasize\n      0x00\n      dup1\n      returndatacopy\n      revert(0x00, returndatasize)\n    tag_77:\n      pop\n        /* \"_Escrow.sol\":1586:1600  State.COMPLETE */\n      0x03\n        /* \"_Escrow.sol\":1574:1583  currState */\n      0x00\n      dup1\n        /* \"_Escrow.sol\":1574:1600  currState = State.COMPLETE */\n      0x0100\n      exp\n      dup2\n      sload\n      dup2\n      0xff\n      mul\n      not\n      and\n      swap1\n      dup4\n      0x03\n      dup2\n      gt\n      iszero\n      tag_78\n      jumpi\n      tag_79\n      tag_54\n      jump\t// in\n    tag_79:\n    tag_78:\n      mul\n      or\n      swap1\n      sstore\n      pop\n        /* \"_Escrow.sol\":1398:1607  function confirmDelivery() onlyBuyer payable public{... */\n      jump\t// out\n        /* \"_Escrow.sol\":393:413  address public buyer */\n    tag_24:\n      0x02\n      0x00\n      swap1\n      sload\n      swap1\n      0x0100\n      exp\n      swap1\n      div\n      0xffffffffffffffffffffffffffffffffffffffff\n      and\n      dup2\n      jump\t// out\n        /* \"_Escrow.sol\":862:1160  function initContract() escrowNotStarted public {... */\n    tag_29:\n        /* \"_Escrow.sol\":654:673  State.NOT_INITIATED */\n      0x00\n        /* \"_Escrow.sol\":641:673  currState == State.NOT_INITIATED */\n      0x03\n      dup2\n      gt\n      iszero\n      tag_81\n      jumpi\n      tag_82\n      tag_54\n      jump\t// in\n    tag_82:\n    tag_81:\n        /* \"_Escrow.sol\":641:650  currState */\n      0x00\n      dup1\n      sload\n      swap1\n      0x0100\n      exp\n      swap1\n      div\n      0xff\n      and\n        /* \"_Escrow.sol\":641:673  currState == State.NOT_INITIATED */\n      0x03\n      dup2\n      gt\n      iszero\n      tag_83\n      jumpi\n      tag_84\n      tag_54\n      jump\t// in\n    tag_84:\n    tag_83:\n      eq\n        /* \"_Escrow.sol\":633:674  require(currState == State.NOT_INITIATED) */\n      tag_85\n      jumpi\n      0x00\n      dup1\n      revert\n    tag_85:\n        /* \"_Escrow.sol\":937:942  buyer */\n      0x02\n      0x00\n      swap1\n      sload\n      swap1\n      0x0100\n      exp\n      swap1\n      div\n      0xffffffffffffffffffffffffffffffffffffffff\n      and\n        /* \"_Escrow.sol\":923:942  msg.sender == buyer */\n      0xffffffffffffffffffffffffffffffffffffffff\n      and\n        /* \"_Escrow.sol\":923:933  msg.sender */\n      caller\n        /* \"_Escrow.sol\":923:942  msg.sender == buyer */\n      0xffffffffffffffffffffffffffffffffffffffff\n      and\n      eq\n        /* \"_Escrow.sol\":920:984  if(msg.sender == buyer){... */\n      iszero\n      tag_87\n      jumpi\n        /* \"_Escrow.sol\":969:973  true */\n      0x01\n        /* \"_Escrow.sol\":957:966  isBuyerIn */\n      0x00\n      0x01\n        /* \"_Escrow.sol\":957:973  isBuyerIn = true */\n      0x0100\n      exp\n      dup2\n      sload\n      dup2\n      0xff\n      mul\n      not\n      and\n      swap1\n      dup4\n      iszero\n      iszero\n      mul\n      or\n      swap1\n      sstore\n      pop\n        /* \"_Escrow.sol\":920:984  if(msg.sender == buyer){... */\n    tag_87:\n        /* \"_Escrow.sol\":1010:1016  seller */\n      0x03\n      0x00\n      swap1\n      sload\n      swap1\n      0x0100\n      exp\n      swap1\n      div\n      0xffffffffffffffffffffffffffffffffffffffff\n      and\n        /* \"_Escrow.sol\":996:1016  msg.sender == seller */\n      0xffffffffffffffffffffffffffffffffffffffff\n      and\n        /* \"_Escrow.sol\":996:1006  msg.sender */\n      caller\n        /* \"_Escrow.sol\":996:1016  msg.sender == seller */\n      0xffffffffffffffffffffffffffffffffffffffff\n      and\n      eq\n        /* \"_Escrow.sol\":993:1059  if(msg.sender == seller){... */\n      iszero\n      tag_88\n      jumpi\n        /* \"_Escrow.sol\":1044:1048  true */\n      0x01\n        /* \"_Escrow.sol\":1031:1041  isSellerIn */\n      0x00\n      0x02\n        /* \"_Escrow.sol\":1031:1048  isSellerIn = true */\n      0x0100\n      exp\n      dup2\n      sload\n      dup2\n      0xff\n      mul\n      not\n      and\n      swap1\n      dup4\n      iszero\n      iszero\n      mul\n      or\n      swap1\n      sstore\n      pop\n        /* \"_Escrow.sol\":993:1059  if(msg.sender == seller){... */\n    tag_88:\n        /* \"_Escrow.sol\":1071:1080  isBuyerIn */\n      0x00\n      0x01\n      swap1\n      sload\n      swap1\n      0x0100\n      exp\n      swap1\n      div\n      0xff\n      and\n        /* \"_Escrow.sol\":1071:1094  isBuyerIn && isSellerIn */\n      dup1\n      iszero\n      tag_89\n      jumpi\n      pop\n        /* \"_Escrow.sol\":1084:1094  isSellerIn */\n      0x00\n      0x02\n      swap1\n      sload\n      swap1\n      0x0100\n      exp\n      swap1\n      div\n      0xff\n      and\n        /* \"_Escrow.sol\":1071:1094  isBuyerIn && isSellerIn */\n    tag_89:\n        /* \"_Escrow.sol\":1068:1154  if(isBuyerIn && isSellerIn){... */\n      iszero\n      tag_90\n      jumpi\n        /* \"_Escrow.sol\":1121:1143  State.AWAITING_PAYMENT */\n      0x01\n        /* \"_Escrow.sol\":1109:1118  currState */\n      0x00\n      dup1\n        /* \"_Escrow.sol\":1109:1143  currState = State.AWAITING_PAYMENT */\n      0x0100\n      exp\n      dup2\n      sload\n      dup2\n      0xff\n      mul\n      not\n      and\n      swap1\n      dup4\n      0x03\n      dup2\n      gt\n      iszero\n      tag_91\n      jumpi\n      tag_92\n      tag_54\n      jump\t// in\n    tag_92:\n    tag_91:\n      mul\n      or\n      swap1\n      sstore\n      pop\n        /* \"_Escrow.sol\":1068:1154  if(isBuyerIn && isSellerIn){... */\n    tag_90:\n        /* \"_Escrow.sol\":862:1160  function initContract() escrowNotStarted public {... */\n      jump\t// out\n        /* \"_Escrow.sol\":340:362  bool public isSellerIn */\n    tag_32:\n      0x00\n      0x02\n      swap1\n      sload\n      swap1\n      0x0100\n      exp\n      swap1\n      div\n      0xff\n      and\n      dup2\n      jump\t// out\n        /* \"_Escrow.sol\":369:386  uint public price */\n    tag_37:\n      sload(0x01)\n      dup2\n      jump\t// out\n        /* \"_Escrow.sol\":285:307  State public currState */\n    tag_42:\n      0x00\n      dup1\n      sload\n      swap1\n      0x0100\n      exp\n      swap1\n      div\n      0xff\n      and\n      dup2\n      jump\t// out\n        /* \"_Escrow.sol\":313:334  bool public isBuyerIn */\n    tag_47:\n      0x00\n      0x01\n      swap1\n      sload\n      swap1\n      0x0100\n      exp\n      swap1\n      div\n      0xff\n      and\n      dup2\n      jump\t// out\n        /* \"_Escrow.sol\":1166:1392  function deposit() onlyBuyer public payable{... */\n    tag_50:\n        /* \"_Escrow.sol\":528:533  buyer */\n      0x02\n      0x00\n      swap1\n      sload\n      swap1\n      0x0100\n      exp\n      swap1\n      div\n      0xffffffffffffffffffffffffffffffffffffffff\n      and\n        /* \"_Escrow.sol\":514:533  msg.sender == buyer */\n      0xffffffffffffffffffffffffffffffffffffffff\n      and\n        /* \"_Escrow.sol\":514:524  msg.sender */\n      caller\n        /* \"_Escrow.sol\":514:533  msg.sender == buyer */\n      0xffffffffffffffffffffffffffffffffffffffff\n      and\n      eq\n        /* \"_Escrow.sol\":505:572  require( msg.sender == buyer , \"Only buyer can call this function\") */\n      tag_94\n      jumpi\n      mload(0x40)\n      0x08c379a000000000000000000000000000000000000000000000000000000000\n      dup2\n      mstore\n      0x04\n      add\n      tag_95\n      swap1\n      tag_67\n      jump\t// in\n    tag_95:\n      mload(0x40)\n      dup1\n      swap2\n      sub\n      swap1\n      revert\n    tag_94:\n        /* \"_Escrow.sol\":1240:1262  State.AWAITING_PAYMENT */\n      0x01\n        /* \"_Escrow.sol\":1227:1262  currState == State.AWAITING_PAYMENT */\n      0x03\n      dup2\n      gt\n      iszero\n      tag_97\n      jumpi\n      tag_98\n      tag_54\n      jump\t// in\n    tag_98:\n    tag_97:\n        /* \"_Escrow.sol\":1227:1236  currState */\n      0x00\n      dup1\n      sload\n      swap1\n      0x0100\n      exp\n      swap1\n      div\n      0xff\n      and\n        /* \"_Escrow.sol\":1227:1262  currState == State.AWAITING_PAYMENT */\n      0x03\n      dup2\n      gt\n      iszero\n      tag_99\n      jumpi\n      tag_100\n      tag_54\n      jump\t// in\n    tag_100:\n    tag_99:\n      eq\n        /* \"_Escrow.sol\":1219:1279  require(currState == State.AWAITING_PAYMENT, \"Already Paid\") */\n      tag_101\n      jumpi\n      mload(0x40)\n      0x08c379a000000000000000000000000000000000000000000000000000000000\n      dup2\n      mstore\n      0x04\n      add\n      tag_102\n      swap1\n      tag_103\n      jump\t// in\n    tag_102:\n      mload(0x40)\n      dup1\n      swap2\n      sub\n      swap1\n      revert\n    tag_101:\n        /* \"_Escrow.sol\":1310:1315  price */\n      sload(0x01)\n        /* \"_Escrow.sol\":1297:1306  msg.value */\n      callvalue\n        /* \"_Escrow.sol\":1297:1315  msg.value == price */\n      eq\n        /* \"_Escrow.sol\":1289:1340  require(msg.value == price, \"Wrong amount deposit\") */\n      tag_104\n      jumpi\n      mload(0x40)\n      0x08c379a000000000000000000000000000000000000000000000000000000000\n      dup2\n      mstore\n      0x04\n      add\n      tag_105\n      swap1\n      tag_106\n      jump\t// in\n    tag_105:\n      mload(0x40)\n      dup1\n      swap2\n      sub\n      swap1\n      revert\n    tag_104:\n        /* \"_Escrow.sol\":1362:1385  State.AWAITING_DELIVERY */\n      0x02\n        /* \"_Escrow.sol\":1350:1359  currState */\n      0x00\n      dup1\n        /* \"_Escrow.sol\":1350:1385  currState = State.AWAITING_DELIVERY */\n      0x0100\n      exp\n      dup2\n      sload\n      dup2\n      0xff\n      mul\n      not\n      and\n      swap1\n      dup4\n      0x03\n      dup2\n      gt\n      iszero\n      tag_107\n      jumpi\n      tag_108\n      tag_54\n      jump\t// in\n    tag_108:\n    tag_107:\n      mul\n      or\n      swap1\n      sstore\n      pop\n        /* \"_Escrow.sol\":1166:1392  function deposit() onlyBuyer public payable{... */\n      jump\t// out\n        /* \"#utility.yul\":7:149   */\n    tag_110:\n        /* \"#utility.yul\":110:142   */\n      tag_112\n        /* \"#utility.yul\":136:141   */\n      dup2\n        /* \"#utility.yul\":110:142   */\n      tag_113\n      jump\t// in\n    tag_112:\n        /* \"#utility.yul\":105:108   */\n      dup3\n        /* \"#utility.yul\":98:143   */\n      mstore\n        /* \"#utility.yul\":7:149   */\n      pop\n      pop\n      jump\t// out\n        /* \"#utility.yul\":155:273   */\n    tag_114:\n        /* \"#utility.yul\":242:266   */\n      tag_116\n        /* \"#utility.yul\":260:265   */\n      dup2\n        /* \"#utility.yul\":242:266   */\n      tag_117\n      jump\t// in\n    tag_116:\n        /* \"#utility.yul\":237:240   */\n      dup3\n        /* \"#utility.yul\":230:267   */\n      mstore\n        /* \"#utility.yul\":155:273   */\n      pop\n      pop\n      jump\t// out\n        /* \"#utility.yul\":279:388   */\n    tag_118:\n        /* \"#utility.yul\":360:381   */\n      tag_120\n        /* \"#utility.yul\":375:380   */\n      dup2\n        /* \"#utility.yul\":360:381   */\n      tag_121\n      jump\t// in\n    tag_120:\n        /* \"#utility.yul\":355:358   */\n      dup3\n        /* \"#utility.yul\":348:382   */\n      mstore\n        /* \"#utility.yul\":279:388   */\n      pop\n      pop\n      jump\t// out\n        /* \"#utility.yul\":394:535   */\n    tag_122:\n        /* \"#utility.yul\":486:528   */\n      tag_124\n        /* \"#utility.yul\":522:527   */\n      dup2\n        /* \"#utility.yul\":486:528   */\n      tag_125\n      jump\t// in\n    tag_124:\n        /* \"#utility.yul\":481:484   */\n      dup3\n        /* \"#utility.yul\":474:529   */\n      mstore\n        /* \"#utility.yul\":394:535   */\n      pop\n      pop\n      jump\t// out\n        /* \"#utility.yul\":541:907   */\n    tag_126:\n        /* \"#utility.yul\":683:686   */\n      0x00\n        /* \"#utility.yul\":704:771   */\n      tag_128\n        /* \"#utility.yul\":768:770   */\n      0x17\n        /* \"#utility.yul\":763:766   */\n      dup4\n        /* \"#utility.yul\":704:771   */\n      tag_129\n      jump\t// in\n    tag_128:\n        /* \"#utility.yul\":697:771   */\n      swap2\n      pop\n        /* \"#utility.yul\":780:873   */\n      tag_130\n        /* \"#utility.yul\":869:872   */\n      dup3\n        /* \"#utility.yul\":780:873   */\n      tag_131\n      jump\t// in\n    tag_130:\n        /* \"#utility.yul\":898:900   */\n      0x20\n        /* \"#utility.yul\":893:896   */\n      dup3\n        /* \"#utility.yul\":889:901   */\n      add\n        /* \"#utility.yul\":882:901   */\n      swap1\n      pop\n        /* \"#utility.yul\":541:907   */\n      swap2\n      swap1\n      pop\n      jump\t// out\n        /* \"#utility.yul\":913:1279   */\n    tag_132:\n        /* \"#utility.yul\":1055:1058   */\n      0x00\n        /* \"#utility.yul\":1076:1143   */\n      tag_134\n        /* \"#utility.yul\":1140:1142   */\n      0x1d\n        /* \"#utility.yul\":1135:1138   */\n      dup4\n        /* \"#utility.yul\":1076:1143   */\n      tag_129\n      jump\t// in\n    tag_134:\n        /* \"#utility.yul\":1069:1143   */\n      swap2\n      pop\n        /* \"#utility.yul\":1152:1245   */\n      tag_135\n        /* \"#utility.yul\":1241:1244   */\n      dup3\n        /* \"#utility.yul\":1152:1245   */\n      tag_136\n      jump\t// in\n    tag_135:\n        /* \"#utility.yul\":1270:1272   */\n      0x20\n        /* \"#utility.yul\":1265:1268   */\n      dup3\n        /* \"#utility.yul\":1261:1273   */\n      add\n        /* \"#utility.yul\":1254:1273   */\n      swap1\n      pop\n        /* \"#utility.yul\":913:1279   */\n      swap2\n      swap1\n      pop\n      jump\t// out\n        /* \"#utility.yul\":1285:1651   */\n    tag_137:\n        /* \"#utility.yul\":1427:1430   */\n      0x00\n        /* \"#utility.yul\":1448:1515   */\n      tag_139\n        /* \"#utility.yul\":1512:1514   */\n      0x0c\n        /* \"#utility.yul\":1507:1510   */\n      dup4\n        /* \"#utility.yul\":1448:1515   */\n      tag_129\n      jump\t// in\n    tag_139:\n        /* \"#utility.yul\":1441:1515   */\n      swap2\n      pop\n        /* \"#utility.yul\":1524:1617   */\n      tag_140\n        /* \"#utility.yul\":1613:1616   */\n      dup3\n        /* \"#utility.yul\":1524:1617   */\n      tag_141\n      jump\t// in\n    tag_140:\n        /* \"#utility.yul\":1642:1644   */\n      0x20\n        /* \"#utility.yul\":1637:1640   */\n      dup3\n        /* \"#utility.yul\":1633:1645   */\n      add\n        /* \"#utility.yul\":1626:1645   */\n      swap1\n      pop\n        /* \"#utility.yul\":1285:1651   */\n      swap2\n      swap1\n      pop\n      jump\t// out\n        /* \"#utility.yul\":1657:2023   */\n    tag_142:\n        /* \"#utility.yul\":1799:1802   */\n      0x00\n        /* \"#utility.yul\":1820:1887   */\n      tag_144\n        /* \"#utility.yul\":1884:1886   */\n      0x21\n        /* \"#utility.yul\":1879:1882   */\n      dup4\n        /* \"#utility.yul\":1820:1887   */\n      tag_129\n      jump\t// in\n    tag_144:\n        /* \"#utility.yul\":1813:1887   */\n      swap2\n      pop\n        /* \"#utility.yul\":1896:1989   */\n      tag_145\n        /* \"#utility.yul\":1985:1988   */\n      dup3\n        /* \"#utility.yul\":1896:1989   */\n      tag_146\n      jump\t// in\n    tag_145:\n        /* \"#utility.yul\":2014:2016   */\n      0x40\n        /* \"#utility.yul\":2009:2012   */\n      dup3\n        /* \"#utility.yul\":2005:2017   */\n      add\n        /* \"#utility.yul\":1998:2017   */\n      swap1\n      pop\n        /* \"#utility.yul\":1657:2023   */\n      swap2\n      swap1\n      pop\n      jump\t// out\n        /* \"#utility.yul\":2029:2395   */\n    tag_147:\n        /* \"#utility.yul\":2171:2174   */\n      0x00\n        /* \"#utility.yul\":2192:2259   */\n      tag_149\n        /* \"#utility.yul\":2256:2258   */\n      0x14\n        /* \"#utility.yul\":2251:2254   */\n      dup4\n        /* \"#utility.yul\":2192:2259   */\n      tag_129\n      jump\t// in\n    tag_149:\n        /* \"#utility.yul\":2185:2259   */\n      swap2\n      pop\n        /* \"#utility.yul\":2268:2361   */\n      tag_150\n        /* \"#utility.yul\":2357:2360   */\n      dup3\n        /* \"#utility.yul\":2268:2361   */\n      tag_151\n      jump\t// in\n    tag_150:\n        /* \"#utility.yul\":2386:2388   */\n      0x20\n        /* \"#utility.yul\":2381:2384   */\n      dup3\n        /* \"#utility.yul\":2377:2389   */\n      add\n        /* \"#utility.yul\":2370:2389   */\n      swap1\n      pop\n        /* \"#utility.yul\":2029:2395   */\n      swap2\n      swap1\n      pop\n      jump\t// out\n        /* \"#utility.yul\":2401:2519   */\n    tag_152:\n        /* \"#utility.yul\":2488:2512   */\n      tag_154\n        /* \"#utility.yul\":2506:2511   */\n      dup2\n        /* \"#utility.yul\":2488:2512   */\n      tag_155\n      jump\t// in\n    tag_154:\n        /* \"#utility.yul\":2483:2486   */\n      dup3\n        /* \"#utility.yul\":2476:2513   */\n      mstore\n        /* \"#utility.yul\":2401:2519   */\n      pop\n      pop\n      jump\t// out\n        /* \"#utility.yul\":2525:2747   */\n    tag_26:\n        /* \"#utility.yul\":2618:2622   */\n      0x00\n        /* \"#utility.yul\":2656:2658   */\n      0x20\n        /* \"#utility.yul\":2645:2654   */\n      dup3\n        /* \"#utility.yul\":2641:2659   */\n      add\n        /* \"#utility.yul\":2633:2659   */\n      swap1\n      pop\n        /* \"#utility.yul\":2669:2740   */\n      tag_157\n        /* \"#utility.yul\":2737:2738   */\n      0x00\n        /* \"#utility.yul\":2726:2735   */\n      dup4\n        /* \"#utility.yul\":2722:2739   */\n      add\n        /* \"#utility.yul\":2713:2719   */\n      dup5\n        /* \"#utility.yul\":2669:2740   */\n      tag_114\n      jump\t// in\n    tag_157:\n        /* \"#utility.yul\":2525:2747   */\n      swap3\n      swap2\n      pop\n      pop\n      jump\t// out\n        /* \"#utility.yul\":2753:3007   */\n    tag_17:\n        /* \"#utility.yul\":2862:2866   */\n      0x00\n        /* \"#utility.yul\":2900:2902   */\n      0x20\n        /* \"#utility.yul\":2889:2898   */\n      dup3\n        /* \"#utility.yul\":2885:2903   */\n      add\n        /* \"#utility.yul\":2877:2903   */\n      swap1\n      pop\n        /* \"#utility.yul\":2913:3000   */\n      tag_159\n        /* \"#utility.yul\":2997:2998   */\n      0x00\n        /* \"#utility.yul\":2986:2995   */\n      dup4\n        /* \"#utility.yul\":2982:2999   */\n      add\n        /* \"#utility.yul\":2973:2979   */\n      dup5\n        /* \"#utility.yul\":2913:3000   */\n      tag_110\n      jump\t// in\n    tag_159:\n        /* \"#utility.yul\":2753:3007   */\n      swap3\n      swap2\n      pop\n      pop\n      jump\t// out\n        /* \"#utility.yul\":3013:3223   */\n    tag_34:\n        /* \"#utility.yul\":3100:3104   */\n      0x00\n        /* \"#utility.yul\":3138:3140   */\n      0x20\n        /* \"#utility.yul\":3127:3136   */\n      dup3\n        /* \"#utility.yul\":3123:3141   */\n      add\n        /* \"#utility.yul\":3115:3141   */\n      swap1\n      pop\n        /* \"#utility.yul\":3151:3216   */\n      tag_161\n        /* \"#utility.yul\":3213:3214   */\n      0x00\n        /* \"#utility.yul\":3202:3211   */\n      dup4\n        /* \"#utility.yul\":3198:3215   */\n      add\n        /* \"#utility.yul\":3189:3195   */\n      dup5\n        /* \"#utility.yul\":3151:3216   */\n      tag_118\n      jump\t// in\n    tag_161:\n        /* \"#utility.yul\":3013:3223   */\n      swap3\n      swap2\n      pop\n      pop\n      jump\t// out\n        /* \"#utility.yul\":3229:3461   */\n    tag_44:\n        /* \"#utility.yul\":3327:3331   */\n      0x00\n        /* \"#utility.yul\":3365:3367   */\n      0x20\n        /* \"#utility.yul\":3354:3363   */\n      dup3\n        /* \"#utility.yul\":3350:3368   */\n      add\n        /* \"#utility.yul\":3342:3368   */\n      swap1\n      pop\n        /* \"#utility.yul\":3378:3454   */\n      tag_163\n        /* \"#utility.yul\":3451:3452   */\n      0x00\n        /* \"#utility.yul\":3440:3449   */\n      dup4\n        /* \"#utility.yul\":3436:3453   */\n      add\n        /* \"#utility.yul\":3427:3433   */\n      dup5\n        /* \"#utility.yul\":3378:3454   */\n      tag_122\n      jump\t// in\n    tag_163:\n        /* \"#utility.yul\":3229:3461   */\n      swap3\n      swap2\n      pop\n      pop\n      jump\t// out\n        /* \"#utility.yul\":3467:3886   */\n    tag_75:\n        /* \"#utility.yul\":3633:3637   */\n      0x00\n        /* \"#utility.yul\":3671:3673   */\n      0x20\n        /* \"#utility.yul\":3660:3669   */\n      dup3\n        /* \"#utility.yul\":3656:3674   */\n      add\n        /* \"#utility.yul\":3648:3674   */\n      swap1\n      pop\n        /* \"#utility.yul\":3720:3729   */\n      dup2\n        /* \"#utility.yul\":3714:3718   */\n      dup2\n        /* \"#utility.yul\":3710:3730   */\n      sub\n        /* \"#utility.yul\":3706:3707   */\n      0x00\n        /* \"#utility.yul\":3695:3704   */\n      dup4\n        /* \"#utility.yul\":3691:3708   */\n      add\n        /* \"#utility.yul\":3684:3731   */\n      mstore\n        /* \"#utility.yul\":3748:3879   */\n      tag_165\n        /* \"#utility.yul\":3874:3878   */\n      dup2\n        /* \"#utility.yul\":3748:3879   */\n      tag_126\n      jump\t// in\n    tag_165:\n        /* \"#utility.yul\":3740:3879   */\n      swap1\n      pop\n        /* \"#utility.yul\":3467:3886   */\n      swap2\n      swap1\n      pop\n      jump\t// out\n        /* \"#utility.yul\":3892:4311   */\n    tag_59:\n        /* \"#utility.yul\":4058:4062   */\n      0x00\n        /* \"#utility.yul\":4096:4098   */\n      0x20\n        /* \"#utility.yul\":4085:4094   */\n      dup3\n        /* \"#utility.yul\":4081:4099   */\n      add\n        /* \"#utility.yul\":4073:4099   */\n      swap1\n      pop\n        /* \"#utility.yul\":4145:4154   */\n      dup2\n        /* \"#utility.yul\":4139:4143   */\n      dup2\n        /* \"#utility.yul\":4135:4155   */\n      sub\n        /* \"#utility.yul\":4131:4132   */\n      0x00\n        /* \"#utility.yul\":4120:4129   */\n      dup4\n        /* \"#utility.yul\":4116:4133   */\n      add\n        /* \"#utility.yul\":4109:4156   */\n      mstore\n        /* \"#utility.yul\":4173:4304   */\n      tag_167\n        /* \"#utility.yul\":4299:4303   */\n      dup2\n        /* \"#utility.yul\":4173:4304   */\n      tag_132\n      jump\t// in\n    tag_167:\n        /* \"#utility.yul\":4165:4304   */\n      swap1\n      pop\n        /* \"#utility.yul\":3892:4311   */\n      swap2\n      swap1\n      pop\n      jump\t// out\n        /* \"#utility.yul\":4317:4736   */\n    tag_103:\n        /* \"#utility.yul\":4483:4487   */\n      0x00\n        /* \"#utility.yul\":4521:4523   */\n      0x20\n        /* \"#utility.yul\":4510:4519   */\n      dup3\n        /* \"#utility.yul\":4506:4524   */\n      add\n        /* \"#utility.yul\":4498:4524   */\n      swap1\n      pop\n        /* \"#utility.yul\":4570:4579   */\n      dup2\n        /* \"#utility.yul\":4564:4568   */\n      dup2\n        /* \"#utility.yul\":4560:4580   */\n      sub\n        /* \"#utility.yul\":4556:4557   */\n      0x00\n        /* \"#utility.yul\":4545:4554   */\n      dup4\n        /* \"#utility.yul\":4541:4558   */\n      add\n        /* \"#utility.yul\":4534:4581   */\n      mstore\n        /* \"#utility.yul\":4598:4729   */\n      tag_169\n        /* \"#utility.yul\":4724:4728   */\n      dup2\n        /* \"#utility.yul\":4598:4729   */\n      tag_137\n      jump\t// in\n    tag_169:\n        /* \"#utility.yul\":4590:4729   */\n      swap1\n      pop\n        /* \"#utility.yul\":4317:4736   */\n      swap2\n      swap1\n      pop\n      jump\t// out\n        /* \"#utility.yul\":4742:5161   */\n    tag_67:\n        /* \"#utility.yul\":4908:4912   */\n      0x00\n        /* \"#utility.yul\":4946:4948   */\n      0x20\n        /* \"#utility.yul\":4935:4944   */\n      dup3\n        /* \"#utility.yul\":4931:4949   */\n      add\n        /* \"#utility.yul\":4923:4949   */\n      swap1\n      pop\n        /* \"#utility.yul\":4995:5004   */\n      dup2\n        /* \"#utility.yul\":4989:4993   */\n      dup2\n        /* \"#utility.yul\":4985:5005   */\n      sub\n        /* \"#utility.yul\":4981:4982   */\n      0x00\n        /* \"#utility.yul\":4970:4979   */\n      dup4\n        /* \"#utility.yul\":4966:4983   */\n      add\n        /* \"#utility.yul\":4959:5006   */\n      mstore\n        /* \"#utility.yul\":5023:5154   */\n      tag_171\n        /* \"#utility.yul\":5149:5153   */\n      dup2\n        /* \"#utility.yul\":5023:5154   */\n      tag_142\n      jump\t// in\n    tag_171:\n        /* \"#utility.yul\":5015:5154   */\n      swap1\n      pop\n        /* \"#utility.yul\":4742:5161   */\n      swap2\n      swap1\n      pop\n      jump\t// out\n        /* \"#utility.yul\":5167:5586   */\n    tag_106:\n        /* \"#utility.yul\":5333:5337   */\n      0x00\n        /* \"#utility.yul\":5371:5373   */\n      0x20\n        /* \"#utility.yul\":5360:5369   */\n      dup3\n        /* \"#utility.yul\":5356:5374   */\n      add\n        /* \"#utility.yul\":5348:5374   */\n      swap1\n      pop\n        /* \"#utility.yul\":5420:5429   */\n      dup2\n        /* \"#utility.yul\":5414:5418   */\n      dup2\n        /* \"#utility.yul\":5410:5430   */\n      sub\n        /* \"#utility.yul\":5406:5407   */\n      0x00\n        /* \"#utility.yul\":5395:5404   */\n      dup4\n        /* \"#utility.yul\":5391:5408   */\n      add\n        /* \"#utility.yul\":5384:5431   */\n      mstore\n        /* \"#utility.yul\":5448:5579   */\n      tag_173\n        /* \"#utility.yul\":5574:5578   */\n      dup2\n        /* \"#utility.yul\":5448:5579   */\n      tag_147\n      jump\t// in\n    tag_173:\n        /* \"#utility.yul\":5440:5579   */\n      swap1\n      pop\n        /* \"#utility.yul\":5167:5586   */\n      swap2\n      swap1\n      pop\n      jump\t// out\n        /* \"#utility.yul\":5592:5814   */\n    tag_39:\n        /* \"#utility.yul\":5685:5689   */\n      0x00\n        /* \"#utility.yul\":5723:5725   */\n      0x20\n        /* \"#utility.yul\":5712:5721   */\n      dup3\n        /* \"#utility.yul\":5708:5726   */\n      add\n        /* \"#utility.yul\":5700:5726   */\n      swap1\n      pop\n        /* \"#utility.yul\":5736:5807   */\n      tag_175\n        /* \"#utility.yul\":5804:5805   */\n      0x00\n        /* \"#utility.yul\":5793:5802   */\n      dup4\n        /* \"#utility.yul\":5789:5806   */\n      add\n        /* \"#utility.yul\":5780:5786   */\n      dup5\n        /* \"#utility.yul\":5736:5807   */\n      tag_152\n      jump\t// in\n    tag_175:\n        /* \"#utility.yul\":5592:5814   */\n      swap3\n      swap2\n      pop\n      pop\n      jump\t// out\n        /* \"#utility.yul\":5820:5989   */\n    tag_129:\n        /* \"#utility.yul\":5904:5915   */\n      0x00\n        /* \"#utility.yul\":5938:5944   */\n      dup3\n        /* \"#utility.yul\":5933:5936   */\n      dup3\n        /* \"#utility.yul\":5926:5945   */\n      mstore\n        /* \"#utility.yul\":5978:5982   */\n      0x20\n        /* \"#utility.yul\":5973:5976   */\n      dup3\n        /* \"#utility.yul\":5969:5983   */\n      add\n        /* \"#utility.yul\":5954:5983   */\n      swap1\n      pop\n        /* \"#utility.yul\":5820:5989   */\n      swap3\n      swap2\n      pop\n      pop\n      jump\t// out\n        /* \"#utility.yul\":5995:6091   */\n    tag_117:\n        /* \"#utility.yul\":6032:6039   */\n      0x00\n        /* \"#utility.yul\":6061:6085   */\n      tag_178\n        /* \"#utility.yul\":6079:6084   */\n      dup3\n        /* \"#utility.yul\":6061:6085   */\n      tag_179\n      jump\t// in\n    tag_178:\n        /* \"#utility.yul\":6050:6085   */\n      swap1\n      pop\n        /* \"#utility.yul\":5995:6091   */\n      swap2\n      swap1\n      pop\n      jump\t// out\n        /* \"#utility.yul\":6097:6201   */\n    tag_113:\n        /* \"#utility.yul\":6142:6149   */\n      0x00\n        /* \"#utility.yul\":6171:6195   */\n      tag_181\n        /* \"#utility.yul\":6189:6194   */\n      dup3\n        /* \"#utility.yul\":6171:6195   */\n      tag_179\n      jump\t// in\n    tag_181:\n        /* \"#utility.yul\":6160:6195   */\n      swap1\n      pop\n        /* \"#utility.yul\":6097:6201   */\n      swap2\n      swap1\n      pop\n      jump\t// out\n        /* \"#utility.yul\":6207:6297   */\n    tag_121:\n        /* \"#utility.yul\":6241:6248   */\n      0x00\n        /* \"#utility.yul\":6284:6289   */\n      dup2\n        /* \"#utility.yul\":6277:6290   */\n      iszero\n        /* \"#utility.yul\":6270:6291   */\n      iszero\n        /* \"#utility.yul\":6259:6291   */\n      swap1\n      pop\n        /* \"#utility.yul\":6207:6297   */\n      swap2\n      swap1\n      pop\n      jump\t// out\n        /* \"#utility.yul\":6303:6428   */\n    tag_183:\n        /* \"#utility.yul\":6347:6354   */\n      0x00\n        /* \"#utility.yul\":6376:6381   */\n      dup2\n        /* \"#utility.yul\":6365:6381   */\n      swap1\n      pop\n        /* \"#utility.yul\":6382:6422   */\n      tag_185\n        /* \"#utility.yul\":6416:6421   */\n      dup3\n        /* \"#utility.yul\":6382:6422   */\n      tag_186\n      jump\t// in\n    tag_185:\n        /* \"#utility.yul\":6303:6428   */\n      swap2\n      swap1\n      pop\n      jump\t// out\n        /* \"#utility.yul\":6434:6560   */\n    tag_179:\n        /* \"#utility.yul\":6471:6478   */\n      0x00\n        /* \"#utility.yul\":6511:6553   */\n      0xffffffffffffffffffffffffffffffffffffffff\n        /* \"#utility.yul\":6504:6509   */\n      dup3\n        /* \"#utility.yul\":6500:6554   */\n      and\n        /* \"#utility.yul\":6489:6554   */\n      swap1\n      pop\n        /* \"#utility.yul\":6434:6560   */\n      swap2\n      swap1\n      pop\n      jump\t// out\n        /* \"#utility.yul\":6566:6643   */\n    tag_155:\n        /* \"#utility.yul\":6603:6610   */\n      0x00\n        /* \"#utility.yul\":6632:6637   */\n      dup2\n        /* \"#utility.yul\":6621:6637   */\n      swap1\n      pop\n        /* \"#utility.yul\":6566:6643   */\n      swap2\n      swap1\n      pop\n      jump\t// out\n        /* \"#utility.yul\":6649:6774   */\n    tag_125:\n        /* \"#utility.yul\":6704:6713   */\n      0x00\n        /* \"#utility.yul\":6737:6768   */\n      tag_190\n        /* \"#utility.yul\":6762:6767   */\n      dup3\n        /* \"#utility.yul\":6737:6768   */\n      tag_183\n      jump\t// in\n    tag_190:\n        /* \"#utility.yul\":6724:6768   */\n      swap1\n      pop\n        /* \"#utility.yul\":6649:6774   */\n      swap2\n      swap1\n      pop\n      jump\t// out\n        /* \"#utility.yul\":6780:6960   */\n    tag_54:\n        /* \"#utility.yul\":6828:6905   */\n      0x4e487b7100000000000000000000000000000000000000000000000000000000\n        /* \"#utility.yul\":6825:6826   */\n      0x00\n        /* \"#utility.yul\":6818:6906   */\n      mstore\n        /* \"#utility.yul\":6925:6929   */\n      0x21\n        /* \"#utility.yul\":6922:6923   */\n      0x04\n        /* \"#utility.yul\":6915:6930   */\n      mstore\n        /* \"#utility.yul\":6949:6953   */\n      0x24\n        /* \"#utility.yul\":6946:6947   */\n      0x00\n        /* \"#utility.yul\":6939:6954   */\n      revert\n        /* \"#utility.yul\":6966:7139   */\n    tag_131:\n        /* \"#utility.yul\":7106:7131   */\n      0x43616e6e6f7420636f6e6669726d2064656c6976657279000000000000000000\n        /* \"#utility.yul\":7102:7103   */\n      0x00\n        /* \"#utility.yul\":7094:7100   */\n      dup3\n        /* \"#utility.yul\":7090:7104   */\n      add\n        /* \"#utility.yul\":7083:7132   */\n      mstore\n        /* \"#utility.yul\":6966:7139   */\n      pop\n      jump\t// out\n        /* \"#utility.yul\":7145:7324   */\n    tag_136:\n        /* \"#utility.yul\":7285:7316   */\n      0x43616e6e6f742077697468647261772061742074686973207374616765000000\n        /* \"#utility.yul\":7281:7282   */\n      0x00\n        /* \"#utility.yul\":7273:7279   */\n      dup3\n        /* \"#utility.yul\":7269:7283   */\n      add\n        /* \"#utility.yul\":7262:7317   */\n      mstore\n        /* \"#utility.yul\":7145:7324   */\n      pop\n      jump\t// out\n        /* \"#utility.yul\":7330:7492   */\n    tag_141:\n        /* \"#utility.yul\":7470:7484   */\n      0x416c726561647920506169640000000000000000000000000000000000000000\n        /* \"#utility.yul\":7466:7467   */\n      0x00\n        /* \"#utility.yul\":7458:7464   */\n      dup3\n        /* \"#utility.yul\":7454:7468   */\n      add\n        /* \"#utility.yul\":7447:7485   */\n      mstore\n        /* \"#utility.yul\":7330:7492   */\n      pop\n      jump\t// out\n        /* \"#utility.yul\":7498:7718   */\n    tag_146:\n        /* \"#utility.yul\":7638:7672   */\n      0x4f6e6c792062757965722063616e2063616c6c20746869732066756e6374696f\n        /* \"#utility.yul\":7634:7635   */\n      0x00\n        /* \"#utility.yul\":7626:7632   */\n      dup3\n        /* \"#utility.yul\":7622:7636   */\n      add\n        /* \"#utility.yul\":7615:7673   */\n      mstore\n        /* \"#utility.yul\":7707:7710   */\n      0x6e00000000000000000000000000000000000000000000000000000000000000\n        /* \"#utility.yul\":7702:7704   */\n      0x20\n        /* \"#utility.yul\":7694:7700   */\n      dup3\n        /* \"#utility.yul\":7690:7705   */\n      add\n        /* \"#utility.yul\":7683:7711   */\n      mstore\n        /* \"#utility.yul\":7498:7718   */\n      pop\n      jump\t// out\n        /* \"#utility.yul\":7724:7894   */\n    tag_151:\n        /* \"#utility.yul\":7864:7886   */\n      0x57726f6e6720616d6f756e74206465706f736974000000000000000000000000\n        /* \"#utility.yul\":7860:7861   */\n      0x00\n        /* \"#utility.yul\":7852:7858   */\n      dup3\n        /* \"#utility.yul\":7848:7862   */\n      add\n        /* \"#utility.yul\":7841:7887   */\n      mstore\n        /* \"#utility.yul\":7724:7894   */\n      pop\n      jump\t// out\n        /* \"#utility.yul\":7900:8012   */\n    tag_186:\n        /* \"#utility.yul\":7980:7981   */\n      0x04\n        /* \"#utility.yul\":7973:7978   */\n      dup2\n        /* \"#utility.yul\":7970:7982   */\n      lt\n        /* \"#utility.yul\":7960:8006   */\n      tag_198\n      jumpi\n        /* \"#utility.yul\":7986:8004   */\n      tag_199\n      tag_54\n      jump\t// in\n    tag_199:\n        /* \"#utility.yul\":7960:8006   */\n    tag_198:\n        /* \"#utility.yul\":7900:8012   */\n      pop\n      jump\t// out\n\n    auxdata: 0xa26469706673582212202316924022c38188ff88a31ce9a2370ab9770341aa75f71c0af6ce53d57cf11a64736f6c63430008070033\n}\n",
				"bytecode": {
					"linkReferences": {},
					"object": "60806040523480156200001157600080fd5b5060405162000eab38038062000eab833981810160405281019062000037919062000123565b82600260006101000a81548173ffffffffffffffffffffffffffffffffffffffff021916908373ffffffffffffffffffffffffffffffffffffffff16021790555081600360006101000a81548173ffffffffffffffffffffffffffffffffffffffff021916908373ffffffffffffffffffffffffffffffffffffffff160217905550670de0b6b3a764000081620000cf91906200017f565b600181905550505050620002b4565b600081519050620000ef8162000266565b92915050565b600081519050620001068162000280565b92915050565b6000815190506200011d816200029a565b92915050565b6000806000606084860312156200013f576200013e62000261565b5b60006200014f86828701620000de565b93505060206200016286828701620000f5565b925050604062000175868287016200010c565b9150509250925092565b60006200018c8262000228565b9150620001998362000228565b9250817fffffffffffffffffffffffffffffffffffffffffffffffffffffffffffffffff0483118215151615620001d557620001d462000232565b5b828202905092915050565b6000620001ed8262000208565b9050919050565b6000620002018262000208565b9050919050565b600073ffffffffffffffffffffffffffffffffffffffff82169050919050565b6000819050919050565b7f4e487b7100000000000000000000000000000000000000000000000000000000600052601160045260246000fd5b600080fd5b6200027181620001e0565b81146200027d57600080fd5b50565b6200028b81620001f4565b81146200029757600080fd5b50565b620002a58162000228565b8114620002b157600080fd5b50565b610be780620002c46000396000f3fe6080604052600436106100915760003560e01c80639b3bcb33116100595780639b3bcb3314610117578063a035b1fe14610142578063afe010431461016d578063c4bce18014610198578063d0e30db0146101c357610091565b806308551a53146100965780633ccfd60b146100c15780635e10177b146100cb5780637150d8ae146100d55780638203f5fe14610100575b600080fd5b3480156100a257600080fd5b506100ab6101cd565b6040516100b891906108df565b60405180910390f35b6100c96101f3565b005b6100d36102dc565b005b3480156100e157600080fd5b506100ea610477565b6040516100f791906108c4565b60405180910390f35b34801561010c57600080fd5b5061011561049d565b005b34801561012357600080fd5b5061012c610619565b60405161013991906108fa565b60405180910390f35b34801561014e57600080fd5b5061015761062c565b60405161016491906109d0565b60405180910390f35b34801561017957600080fd5b50610182610632565b60405161018f9190610915565b60405180910390f35b3480156101a457600080fd5b506101ad610643565b6040516101ba91906108fa565b60405180910390f35b6101cb610656565b005b600360009054906101000a900473ffffffffffffffffffffffffffffffffffffffff1681565b6002600381111561020757610206610a7b565b5b60008054906101000a900460ff16600381111561022757610226610a7b565b5b14610267576040517f08c379a000000000000000000000000000000000000000000000000000000000815260040161025e90610950565b60405180910390fd5b3373ffffffffffffffffffffffffffffffffffffffff166108fc6001549081150290604051600060405180830381858888f193505050501580156102af573d6000803e3d6000fd5b5060036000806101000a81548160ff021916908360038111156102d5576102d4610a7b565b5b0217905550565b600260009054906101000a900473ffffffffffffffffffffffffffffffffffffffff1673ffffffffffffffffffffffffffffffffffffffff163373ffffffffffffffffffffffffffffffffffffffff161461036c576040517f08c379a000000000000000000000000000000000000000000000000000000000815260040161036390610990565b60405180910390fd5b600260038111156103805761037f610a7b565b5b60008054906101000a900460ff1660038111156103a05761039f610a7b565b5b146103e0576040517f08c379a00000000000000000000000000000000000000000000000000000000081526004016103d790610930565b60405180910390fd5b600360009054906101000a900473ffffffffffffffffffffffffffffffffffffffff1673ffffffffffffffffffffffffffffffffffffffff166108fc6001549081150290604051600060405180830381858888f1935050505015801561044a573d6000803e3d6000fd5b5060036000806101000a81548160ff021916908360038111156104705761046f610a7b565b5b0217905550565b600260009054906101000a900473ffffffffffffffffffffffffffffffffffffffff1681565b600060038111156104b1576104b0610a7b565b5b60008054906101000a900460ff1660038111156104d1576104d0610a7b565b5b146104db57600080fd5b600260009054906101000a900473ffffffffffffffffffffffffffffffffffffffff1673ffffffffffffffffffffffffffffffffffffffff163373ffffffffffffffffffffffffffffffffffffffff16141561054d576001600060016101000a81548160ff0219169083151502179055505b600360009054906101000a900473ffffffffffffffffffffffffffffffffffffffff1673ffffffffffffffffffffffffffffffffffffffff163373ffffffffffffffffffffffffffffffffffffffff1614156105bf576001600060026101000a81548160ff0219169083151502179055505b600060019054906101000a900460ff1680156105e75750600060029054906101000a900460ff165b156106175760016000806101000a81548160ff0219169083600381111561061157610610610a7b565b5b02179055505b565b600060029054906101000a900460ff1681565b60015481565b60008054906101000a900460ff1681565b600060019054906101000a900460ff1681565b600260009054906101000a900473ffffffffffffffffffffffffffffffffffffffff1673ffffffffffffffffffffffffffffffffffffffff163373ffffffffffffffffffffffffffffffffffffffff16146106e6576040517f08c379a00000000000000000000000000000000000000000000000000000000081526004016106dd90610990565b60405180910390fd5b600160038111156106fa576106f9610a7b565b5b60008054906101000a900460ff16600381111561071a57610719610a7b565b5b1461075a576040517f08c379a000000000000000000000000000000000000000000000000000000000815260040161075190610970565b60405180910390fd5b600154341461079e576040517f08c379a0000000000000000000000000000000000000000000000000000000008152600401610795906109b0565b60405180910390fd5b60026000806101000a81548160ff021916908360038111156107c3576107c2610a7b565b5b0217905550565b6107d381610a0e565b82525050565b6107e2816109fc565b82525050565b6107f181610a20565b82525050565b61080081610a69565b82525050565b60006108136017836109eb565b915061081e82610aaa565b602082019050919050565b6000610836601d836109eb565b915061084182610ad3565b602082019050919050565b6000610859600c836109eb565b915061086482610afc565b602082019050919050565b600061087c6021836109eb565b915061088782610b25565b604082019050919050565b600061089f6014836109eb565b91506108aa82610b74565b602082019050919050565b6108be81610a5f565b82525050565b60006020820190506108d960008301846107d9565b92915050565b60006020820190506108f460008301846107ca565b92915050565b600060208201905061090f60008301846107e8565b92915050565b600060208201905061092a60008301846107f7565b92915050565b6000602082019050818103600083015261094981610806565b9050919050565b6000602082019050818103600083015261096981610829565b9050919050565b600060208201905081810360008301526109898161084c565b9050919050565b600060208201905081810360008301526109a98161086f565b9050919050565b600060208201905081810360008301526109c981610892565b9050919050565b60006020820190506109e560008301846108b5565b92915050565b600082825260208201905092915050565b6000610a0782610a3f565b9050919050565b6000610a1982610a3f565b9050919050565b60008115159050919050565b6000819050610a3a82610b9d565b919050565b600073ffffffffffffffffffffffffffffffffffffffff82169050919050565b6000819050919050565b6000610a7482610a2c565b9050919050565b7f4e487b7100000000000000000000000000000000000000000000000000000000600052602160045260246000fd5b7f43616e6e6f7420636f6e6669726d2064656c6976657279000000000000000000600082015250565b7f43616e6e6f742077697468647261772061742074686973207374616765000000600082015250565b7f416c726561647920506169640000000000000000000000000000000000000000600082015250565b7f4f6e6c792062757965722063616e2063616c6c20746869732066756e6374696f60008201527f6e00000000000000000000000000000000000000000000000000000000000000602082015250565b7f57726f6e6720616d6f756e74206465706f736974000000000000000000000000600082015250565b60048110610bae57610bad610a7b565b5b5056fea26469706673582212202316924022c38188ff88a31ce9a2370ab9770341aa75f71c0af6ce53d57cf11a64736f6c63430008070033",
					"opcodes": "PUSH1 0x80 PUSH1 0x40 MSTORE CALLVALUE DUP1 ISZERO PUSH3 0x11 JUMPI PUSH1 0x0 DUP1 REVERT JUMPDEST POP PUSH1 0x40 MLOAD PUSH3 0xEAB CODESIZE SUB DUP1 PUSH3 0xEAB DUP4 CODECOPY DUP2 DUP2 ADD PUSH1 0x40 MSTORE DUP2 ADD SWAP1 PUSH3 0x37 SWAP2 SWAP1 PUSH3 0x123 JUMP JUMPDEST DUP3 PUSH1 0x2 PUSH1 0x0 PUSH2 0x100 EXP DUP2 SLOAD DUP2 PUSH20 0xFFFFFFFFFFFFFFFFFFFFFFFFFFFFFFFFFFFFFFFF MUL NOT AND SWAP1 DUP4 PUSH20 0xFFFFFFFFFFFFFFFFFFFFFFFFFFFFFFFFFFFFFFFF AND MUL OR SWAP1 SSTORE POP DUP2 PUSH1 0x3 PUSH1 0x0 PUSH2 0x100 EXP DUP2 SLOAD DUP2 PUSH20 0xFFFFFFFFFFFFFFFFFFFFFFFFFFFFFFFFFFFFFFFF MUL NOT AND SWAP1 DUP4 PUSH20 0xFFFFFFFFFFFFFFFFFFFFFFFFFFFFFFFFFFFFFFFF AND MUL OR SWAP1 SSTORE POP PUSH8 0xDE0B6B3A7640000 DUP2 PUSH3 0xCF SWAP2 SWAP1 PUSH3 0x17F JUMP JUMPDEST PUSH1 0x1 DUP2 SWAP1 SSTORE POP POP POP POP PUSH3 0x2B4 JUMP JUMPDEST PUSH1 0x0 DUP2 MLOAD SWAP1 POP PUSH3 0xEF DUP2 PUSH3 0x266 JUMP JUMPDEST SWAP3 SWAP2 POP POP JUMP JUMPDEST PUSH1 0x0 DUP2 MLOAD SWAP1 POP PUSH3 0x106 DUP2 PUSH3 0x280 JUMP JUMPDEST SWAP3 SWAP2 POP POP JUMP JUMPDEST PUSH1 0x0 DUP2 MLOAD SWAP1 POP PUSH3 0x11D DUP2 PUSH3 0x29A JUMP JUMPDEST SWAP3 SWAP2 POP POP JUMP JUMPDEST PUSH1 0x0 DUP1 PUSH1 0x0 PUSH1 0x60 DUP5 DUP7 SUB SLT ISZERO PUSH3 0x13F JUMPI PUSH3 0x13E PUSH3 0x261 JUMP JUMPDEST JUMPDEST PUSH1 0x0 PUSH3 0x14F DUP7 DUP3 DUP8 ADD PUSH3 0xDE JUMP JUMPDEST SWAP4 POP POP PUSH1 0x20 PUSH3 0x162 DUP7 DUP3 DUP8 ADD PUSH3 0xF5 JUMP JUMPDEST SWAP3 POP POP PUSH1 0x40 PUSH3 0x175 DUP7 DUP3 DUP8 ADD PUSH3 0x10C JUMP JUMPDEST SWAP2 POP POP SWAP3 POP SWAP3 POP SWAP3 JUMP JUMPDEST PUSH1 0x0 PUSH3 0x18C DUP3 PUSH3 0x228 JUMP JUMPDEST SWAP2 POP PUSH3 0x199 DUP4 PUSH3 0x228 JUMP JUMPDEST SWAP3 POP DUP2 PUSH32 0xFFFFFFFFFFFFFFFFFFFFFFFFFFFFFFFFFFFFFFFFFFFFFFFFFFFFFFFFFFFFFFFF DIV DUP4 GT DUP3 ISZERO ISZERO AND ISZERO PUSH3 0x1D5 JUMPI PUSH3 0x1D4 PUSH3 0x232 JUMP JUMPDEST JUMPDEST DUP3 DUP3 MUL SWAP1 POP SWAP3 SWAP2 POP POP JUMP JUMPDEST PUSH1 0x0 PUSH3 0x1ED DUP3 PUSH3 0x208 JUMP JUMPDEST SWAP1 POP SWAP2 SWAP1 POP JUMP JUMPDEST PUSH1 0x0 PUSH3 0x201 DUP3 PUSH3 0x208 JUMP JUMPDEST SWAP1 POP SWAP2 SWAP1 POP JUMP JUMPDEST PUSH1 0x0 PUSH20 0xFFFFFFFFFFFFFFFFFFFFFFFFFFFFFFFFFFFFFFFF DUP3 AND SWAP1 POP SWAP2 SWAP1 POP JUMP JUMPDEST PUSH1 0x0 DUP2 SWAP1 POP SWAP2 SWAP1 POP JUMP JUMPDEST PUSH32 0x4E487B7100000000000000000000000000000000000000000000000000000000 PUSH1 0x0 MSTORE PUSH1 0x11 PUSH1 0x4 MSTORE PUSH1 0x24 PUSH1 0x0 REVERT JUMPDEST PUSH1 0x0 DUP1 REVERT JUMPDEST PUSH3 0x271 DUP2 PUSH3 0x1E0 JUMP JUMPDEST DUP2 EQ PUSH3 0x27D JUMPI PUSH1 0x0 DUP1 REVERT JUMPDEST POP JUMP JUMPDEST PUSH3 0x28B DUP2 PUSH3 0x1F4 JUMP JUMPDEST DUP2 EQ PUSH3 0x297 JUMPI PUSH1 0x0 DUP1 REVERT JUMPDEST POP JUMP JUMPDEST PUSH3 0x2A5 DUP2 PUSH3 0x228 JUMP JUMPDEST DUP2 EQ PUSH3 0x2B1 JUMPI PUSH1 0x0 DUP1 REVERT JUMPDEST POP JUMP JUMPDEST PUSH2 0xBE7 DUP1 PUSH3 0x2C4 PUSH1 0x0 CODECOPY PUSH1 0x0 RETURN INVALID PUSH1 0x80 PUSH1 0x40 MSTORE PUSH1 0x4 CALLDATASIZE LT PUSH2 0x91 JUMPI PUSH1 0x0 CALLDATALOAD PUSH1 0xE0 SHR DUP1 PUSH4 0x9B3BCB33 GT PUSH2 0x59 JUMPI DUP1 PUSH4 0x9B3BCB33 EQ PUSH2 0x117 JUMPI DUP1 PUSH4 0xA035B1FE EQ PUSH2 0x142 JUMPI DUP1 PUSH4 0xAFE01043 EQ PUSH2 0x16D JUMPI DUP1 PUSH4 0xC4BCE180 EQ PUSH2 0x198 JUMPI DUP1 PUSH4 0xD0E30DB0 EQ PUSH2 0x1C3 JUMPI PUSH2 0x91 JUMP JUMPDEST DUP1 PUSH4 0x8551A53 EQ PUSH2 0x96 JUMPI DUP1 PUSH4 0x3CCFD60B EQ PUSH2 0xC1 JUMPI DUP1 PUSH4 0x5E10177B EQ PUSH2 0xCB JUMPI DUP1 PUSH4 0x7150D8AE EQ PUSH2 0xD5 JUMPI DUP1 PUSH4 0x8203F5FE EQ PUSH2 0x100 JUMPI JUMPDEST PUSH1 0x0 DUP1 REVERT JUMPDEST CALLVALUE DUP1 ISZERO PUSH2 0xA2 JUMPI PUSH1 0x0 DUP1 REVERT JUMPDEST POP PUSH2 0xAB PUSH2 0x1CD JUMP JUMPDEST PUSH1 0x40 MLOAD PUSH2 0xB8 SWAP2 SWAP1 PUSH2 0x8DF JUMP JUMPDEST PUSH1 0x40 MLOAD DUP1 SWAP2 SUB SWAP1 RETURN JUMPDEST PUSH2 0xC9 PUSH2 0x1F3 JUMP JUMPDEST STOP JUMPDEST PUSH2 0xD3 PUSH2 0x2DC JUMP JUMPDEST STOP JUMPDEST CALLVALUE DUP1 ISZERO PUSH2 0xE1 JUMPI PUSH1 0x0 DUP1 REVERT JUMPDEST POP PUSH2 0xEA PUSH2 0x477 JUMP JUMPDEST PUSH1 0x40 MLOAD PUSH2 0xF7 SWAP2 SWAP1 PUSH2 0x8C4 JUMP JUMPDEST PUSH1 0x40 MLOAD DUP1 SWAP2 SUB SWAP1 RETURN JUMPDEST CALLVALUE DUP1 ISZERO PUSH2 0x10C JUMPI PUSH1 0x0 DUP1 REVERT JUMPDEST POP PUSH2 0x115 PUSH2 0x49D JUMP JUMPDEST STOP JUMPDEST CALLVALUE DUP1 ISZERO PUSH2 0x123 JUMPI PUSH1 0x0 DUP1 REVERT JUMPDEST POP PUSH2 0x12C PUSH2 0x619 JUMP JUMPDEST PUSH1 0x40 MLOAD PUSH2 0x139 SWAP2 SWAP1 PUSH2 0x8FA JUMP JUMPDEST PUSH1 0x40 MLOAD DUP1 SWAP2 SUB SWAP1 RETURN JUMPDEST CALLVALUE DUP1 ISZERO PUSH2 0x14E JUMPI PUSH1 0x0 DUP1 REVERT JUMPDEST POP PUSH2 0x157 PUSH2 0x62C JUMP JUMPDEST PUSH1 0x40 MLOAD PUSH2 0x164 SWAP2 SWAP1 PUSH2 0x9D0 JUMP JUMPDEST PUSH1 0x40 MLOAD DUP1 SWAP2 SUB SWAP1 RETURN JUMPDEST CALLVALUE DUP1 ISZERO PUSH2 0x179 JUMPI PUSH1 0x0 DUP1 REVERT JUMPDEST POP PUSH2 0x182 PUSH2 0x632 JUMP JUMPDEST PUSH1 0x40 MLOAD PUSH2 0x18F SWAP2 SWAP1 PUSH2 0x915 JUMP JUMPDEST PUSH1 0x40 MLOAD DUP1 SWAP2 SUB SWAP1 RETURN JUMPDEST CALLVALUE DUP1 ISZERO PUSH2 0x1A4 JUMPI PUSH1 0x0 DUP1 REVERT JUMPDEST POP PUSH2 0x1AD PUSH2 0x643 JUMP JUMPDEST PUSH1 0x40 MLOAD PUSH2 0x1BA SWAP2 SWAP1 PUSH2 0x8FA JUMP JUMPDEST PUSH1 0x40 MLOAD DUP1 SWAP2 SUB SWAP1 RETURN JUMPDEST PUSH2 0x1CB PUSH2 0x656 JUMP JUMPDEST STOP JUMPDEST PUSH1 0x3 PUSH1 0x0 SWAP1 SLOAD SWAP1 PUSH2 0x100 EXP SWAP1 DIV PUSH20 0xFFFFFFFFFFFFFFFFFFFFFFFFFFFFFFFFFFFFFFFF AND DUP2 JUMP JUMPDEST PUSH1 0x2 PUSH1 0x3 DUP2 GT ISZERO PUSH2 0x207 JUMPI PUSH2 0x206 PUSH2 0xA7B JUMP JUMPDEST JUMPDEST PUSH1 0x0 DUP1 SLOAD SWAP1 PUSH2 0x100 EXP SWAP1 DIV PUSH1 0xFF AND PUSH1 0x3 DUP2 GT ISZERO PUSH2 0x227 JUMPI PUSH2 0x226 PUSH2 0xA7B JUMP JUMPDEST JUMPDEST EQ PUSH2 0x267 JUMPI PUSH1 0x40 MLOAD PUSH32 0x8C379A000000000000000000000000000000000000000000000000000000000 DUP2 MSTORE PUSH1 0x4 ADD PUSH2 0x25E SWAP1 PUSH2 0x950 JUMP JUMPDEST PUSH1 0x40 MLOAD DUP1 SWAP2 SUB SWAP1 REVERT JUMPDEST CALLER PUSH20 0xFFFFFFFFFFFFFFFFFFFFFFFFFFFFFFFFFFFFFFFF AND PUSH2 0x8FC PUSH1 0x1 SLOAD SWAP1 DUP2 ISZERO MUL SWAP1 PUSH1 0x40 MLOAD PUSH1 0x0 PUSH1 0x40 MLOAD DUP1 DUP4 SUB DUP2 DUP6 DUP9 DUP9 CALL SWAP4 POP POP POP POP ISZERO DUP1 ISZERO PUSH2 0x2AF JUMPI RETURNDATASIZE PUSH1 0x0 DUP1 RETURNDATACOPY RETURNDATASIZE PUSH1 0x0 REVERT JUMPDEST POP PUSH1 0x3 PUSH1 0x0 DUP1 PUSH2 0x100 EXP DUP2 SLOAD DUP2 PUSH1 0xFF MUL NOT AND SWAP1 DUP4 PUSH1 0x3 DUP2 GT ISZERO PUSH2 0x2D5 JUMPI PUSH2 0x2D4 PUSH2 0xA7B JUMP JUMPDEST JUMPDEST MUL OR SWAP1 SSTORE POP JUMP JUMPDEST PUSH1 0x2 PUSH1 0x0 SWAP1 SLOAD SWAP1 PUSH2 0x100 EXP SWAP1 DIV PUSH20 0xFFFFFFFFFFFFFFFFFFFFFFFFFFFFFFFFFFFFFFFF AND PUSH20 0xFFFFFFFFFFFFFFFFFFFFFFFFFFFFFFFFFFFFFFFF AND CALLER PUSH20 0xFFFFFFFFFFFFFFFFFFFFFFFFFFFFFFFFFFFFFFFF AND EQ PUSH2 0x36C JUMPI PUSH1 0x40 MLOAD PUSH32 0x8C379A000000000000000000000000000000000000000000000000000000000 DUP2 MSTORE PUSH1 0x4 ADD PUSH2 0x363 SWAP1 PUSH2 0x990 JUMP JUMPDEST PUSH1 0x40 MLOAD DUP1 SWAP2 SUB SWAP1 REVERT JUMPDEST PUSH1 0x2 PUSH1 0x3 DUP2 GT ISZERO PUSH2 0x380 JUMPI PUSH2 0x37F PUSH2 0xA7B JUMP JUMPDEST JUMPDEST PUSH1 0x0 DUP1 SLOAD SWAP1 PUSH2 0x100 EXP SWAP1 DIV PUSH1 0xFF AND PUSH1 0x3 DUP2 GT ISZERO PUSH2 0x3A0 JUMPI PUSH2 0x39F PUSH2 0xA7B JUMP JUMPDEST JUMPDEST EQ PUSH2 0x3E0 JUMPI PUSH1 0x40 MLOAD PUSH32 0x8C379A000000000000000000000000000000000000000000000000000000000 DUP2 MSTORE PUSH1 0x4 ADD PUSH2 0x3D7 SWAP1 PUSH2 0x930 JUMP JUMPDEST PUSH1 0x40 MLOAD DUP1 SWAP2 SUB SWAP1 REVERT JUMPDEST PUSH1 0x3 PUSH1 0x0 SWAP1 SLOAD SWAP1 PUSH2 0x100 EXP SWAP1 DIV PUSH20 0xFFFFFFFFFFFFFFFFFFFFFFFFFFFFFFFFFFFFFFFF AND PUSH20 0xFFFFFFFFFFFFFFFFFFFFFFFFFFFFFFFFFFFFFFFF AND PUSH2 0x8FC PUSH1 0x1 SLOAD SWAP1 DUP2 ISZERO MUL SWAP1 PUSH1 0x40 MLOAD PUSH1 0x0 PUSH1 0x40 MLOAD DUP1 DUP4 SUB DUP2 DUP6 DUP9 DUP9 CALL SWAP4 POP POP POP POP ISZERO DUP1 ISZERO PUSH2 0x44A JUMPI RETURNDATASIZE PUSH1 0x0 DUP1 RETURNDATACOPY RETURNDATASIZE PUSH1 0x0 REVERT JUMPDEST POP PUSH1 0x3 PUSH1 0x0 DUP1 PUSH2 0x100 EXP DUP2 SLOAD DUP2 PUSH1 0xFF MUL NOT AND SWAP1 DUP4 PUSH1 0x3 DUP2 GT ISZERO PUSH2 0x470 JUMPI PUSH2 0x46F PUSH2 0xA7B JUMP JUMPDEST JUMPDEST MUL OR SWAP1 SSTORE POP JUMP JUMPDEST PUSH1 0x2 PUSH1 0x0 SWAP1 SLOAD SWAP1 PUSH2 0x100 EXP SWAP1 DIV PUSH20 0xFFFFFFFFFFFFFFFFFFFFFFFFFFFFFFFFFFFFFFFF AND DUP2 JUMP JUMPDEST PUSH1 0x0 PUSH1 0x3 DUP2 GT ISZERO PUSH2 0x4B1 JUMPI PUSH2 0x4B0 PUSH2 0xA7B JUMP JUMPDEST JUMPDEST PUSH1 0x0 DUP1 SLOAD SWAP1 PUSH2 0x100 EXP SWAP1 DIV PUSH1 0xFF AND PUSH1 0x3 DUP2 GT ISZERO PUSH2 0x4D1 JUMPI PUSH2 0x4D0 PUSH2 0xA7B JUMP JUMPDEST JUMPDEST EQ PUSH2 0x4DB JUMPI PUSH1 0x0 DUP1 REVERT JUMPDEST PUSH1 0x2 PUSH1 0x0 SWAP1 SLOAD SWAP1 PUSH2 0x100 EXP SWAP1 DIV PUSH20 0xFFFFFFFFFFFFFFFFFFFFFFFFFFFFFFFFFFFFFFFF AND PUSH20 0xFFFFFFFFFFFFFFFFFFFFFFFFFFFFFFFFFFFFFFFF AND CALLER PUSH20 0xFFFFFFFFFFFFFFFFFFFFFFFFFFFFFFFFFFFFFFFF AND EQ ISZERO PUSH2 0x54D JUMPI PUSH1 0x1 PUSH1 0x0 PUSH1 0x1 PUSH2 0x100 EXP DUP2 SLOAD DUP2 PUSH1 0xFF MUL NOT AND SWAP1 DUP4 ISZERO ISZERO MUL OR SWAP1 SSTORE POP JUMPDEST PUSH1 0x3 PUSH1 0x0 SWAP1 SLOAD SWAP1 PUSH2 0x100 EXP SWAP1 DIV PUSH20 0xFFFFFFFFFFFFFFFFFFFFFFFFFFFFFFFFFFFFFFFF AND PUSH20 0xFFFFFFFFFFFFFFFFFFFFFFFFFFFFFFFFFFFFFFFF AND CALLER PUSH20 0xFFFFFFFFFFFFFFFFFFFFFFFFFFFFFFFFFFFFFFFF AND EQ ISZERO PUSH2 0x5BF JUMPI PUSH1 0x1 PUSH1 0x0 PUSH1 0x2 PUSH2 0x100 EXP DUP2 SLOAD DUP2 PUSH1 0xFF MUL NOT AND SWAP1 DUP4 ISZERO ISZERO MUL OR SWAP1 SSTORE POP JUMPDEST PUSH1 0x0 PUSH1 0x1 SWAP1 SLOAD SWAP1 PUSH2 0x100 EXP SWAP1 DIV PUSH1 0xFF AND DUP1 ISZERO PUSH2 0x5E7 JUMPI POP PUSH1 0x0 PUSH1 0x2 SWAP1 SLOAD SWAP1 PUSH2 0x100 EXP SWAP1 DIV PUSH1 0xFF AND JUMPDEST ISZERO PUSH2 0x617 JUMPI PUSH1 0x1 PUSH1 0x0 DUP1 PUSH2 0x100 EXP DUP2 SLOAD DUP2 PUSH1 0xFF MUL NOT AND SWAP1 DUP4 PUSH1 0x3 DUP2 GT ISZERO PUSH2 0x611 JUMPI PUSH2 0x610 PUSH2 0xA7B JUMP JUMPDEST JUMPDEST MUL OR SWAP1 SSTORE POP JUMPDEST JUMP JUMPDEST PUSH1 0x0 PUSH1 0x2 SWAP1 SLOAD SWAP1 PUSH2 0x100 EXP SWAP1 DIV PUSH1 0xFF AND DUP2 JUMP JUMPDEST PUSH1 0x1 SLOAD DUP2 JUMP JUMPDEST PUSH1 0x0 DUP1 SLOAD SWAP1 PUSH2 0x100 EXP SWAP1 DIV PUSH1 0xFF AND DUP2 JUMP JUMPDEST PUSH1 0x0 PUSH1 0x1 SWAP1 SLOAD SWAP1 PUSH2 0x100 EXP SWAP1 DIV PUSH1 0xFF AND DUP2 JUMP JUMPDEST PUSH1 0x2 PUSH1 0x0 SWAP1 SLOAD SWAP1 PUSH2 0x100 EXP SWAP1 DIV PUSH20 0xFFFFFFFFFFFFFFFFFFFFFFFFFFFFFFFFFFFFFFFF AND PUSH20 0xFFFFFFFFFFFFFFFFFFFFFFFFFFFFFFFFFFFFFFFF AND CALLER PUSH20 0xFFFFFFFFFFFFFFFFFFFFFFFFFFFFFFFFFFFFFFFF AND EQ PUSH2 0x6E6 JUMPI PUSH1 0x40 MLOAD PUSH32 0x8C379A000000000000000000000000000000000000000000000000000000000 DUP2 MSTORE PUSH1 0x4 ADD PUSH2 0x6DD SWAP1 PUSH2 0x990 JUMP JUMPDEST PUSH1 0x40 MLOAD DUP1 SWAP2 SUB SWAP1 REVERT JUMPDEST PUSH1 0x1 PUSH1 0x3 DUP2 GT ISZERO PUSH2 0x6FA JUMPI PUSH2 0x6F9 PUSH2 0xA7B JUMP JUMPDEST JUMPDEST PUSH1 0x0 DUP1 SLOAD SWAP1 PUSH2 0x100 EXP SWAP1 DIV PUSH1 0xFF AND PUSH1 0x3 DUP2 GT ISZERO PUSH2 0x71A JUMPI PUSH2 0x719 PUSH2 0xA7B JUMP JUMPDEST JUMPDEST EQ PUSH2 0x75A JUMPI PUSH1 0x40 MLOAD PUSH32 0x8C379A000000000000000000000000000000000000000000000000000000000 DUP2 MSTORE PUSH1 0x4 ADD PUSH2 0x751 SWAP1 PUSH2 0x970 JUMP JUMPDEST PUSH1 0x40 MLOAD DUP1 SWAP2 SUB SWAP1 REVERT JUMPDEST PUSH1 0x1 SLOAD CALLVALUE EQ PUSH2 0x79E JUMPI PUSH1 0x40 MLOAD PUSH32 0x8C379A000000000000000000000000000000000000000000000000000000000 DUP2 MSTORE PUSH1 0x4 ADD PUSH2 0x795 SWAP1 PUSH2 0x9B0 JUMP JUMPDEST PUSH1 0x40 MLOAD DUP1 SWAP2 SUB SWAP1 REVERT JUMPDEST PUSH1 0x2 PUSH1 0x0 DUP1 PUSH2 0x100 EXP DUP2 SLOAD DUP2 PUSH1 0xFF MUL NOT AND SWAP1 DUP4 PUSH1 0x3 DUP2 GT ISZERO PUSH2 0x7C3 JUMPI PUSH2 0x7C2 PUSH2 0xA7B JUMP JUMPDEST JUMPDEST MUL OR SWAP1 SSTORE POP JUMP JUMPDEST PUSH2 0x7D3 DUP2 PUSH2 0xA0E JUMP JUMPDEST DUP3 MSTORE POP POP JUMP JUMPDEST PUSH2 0x7E2 DUP2 PUSH2 0x9FC JUMP JUMPDEST DUP3 MSTORE POP POP JUMP JUMPDEST PUSH2 0x7F1 DUP2 PUSH2 0xA20 JUMP JUMPDEST DUP3 MSTORE POP POP JUMP JUMPDEST PUSH2 0x800 DUP2 PUSH2 0xA69 JUMP JUMPDEST DUP3 MSTORE POP POP JUMP JUMPDEST PUSH1 0x0 PUSH2 0x813 PUSH1 0x17 DUP4 PUSH2 0x9EB JUMP JUMPDEST SWAP2 POP PUSH2 0x81E DUP3 PUSH2 0xAAA JUMP JUMPDEST PUSH1 0x20 DUP3 ADD SWAP1 POP SWAP2 SWAP1 POP JUMP JUMPDEST PUSH1 0x0 PUSH2 0x836 PUSH1 0x1D DUP4 PUSH2 0x9EB JUMP JUMPDEST SWAP2 POP PUSH2 0x841 DUP3 PUSH2 0xAD3 JUMP JUMPDEST PUSH1 0x20 DUP3 ADD SWAP1 POP SWAP2 SWAP1 POP JUMP JUMPDEST PUSH1 0x0 PUSH2 0x859 PUSH1 0xC DUP4 PUSH2 0x9EB JUMP JUMPDEST SWAP2 POP PUSH2 0x864 DUP3 PUSH2 0xAFC JUMP JUMPDEST PUSH1 0x20 DUP3 ADD SWAP1 POP SWAP2 SWAP1 POP JUMP JUMPDEST PUSH1 0x0 PUSH2 0x87C PUSH1 0x21 DUP4 PUSH2 0x9EB JUMP JUMPDEST SWAP2 POP PUSH2 0x887 DUP3 PUSH2 0xB25 JUMP JUMPDEST PUSH1 0x40 DUP3 ADD SWAP1 POP SWAP2 SWAP1 POP JUMP JUMPDEST PUSH1 0x0 PUSH2 0x89F PUSH1 0x14 DUP4 PUSH2 0x9EB JUMP JUMPDEST SWAP2 POP PUSH2 0x8AA DUP3 PUSH2 0xB74 JUMP JUMPDEST PUSH1 0x20 DUP3 ADD SWAP1 POP SWAP2 SWAP1 POP JUMP JUMPDEST PUSH2 0x8BE DUP2 PUSH2 0xA5F JUMP JUMPDEST DUP3 MSTORE POP POP JUMP JUMPDEST PUSH1 0x0 PUSH1 0x20 DUP3 ADD SWAP1 POP PUSH2 0x8D9 PUSH1 0x0 DUP4 ADD DUP5 PUSH2 0x7D9 JUMP JUMPDEST SWAP3 SWAP2 POP POP JUMP JUMPDEST PUSH1 0x0 PUSH1 0x20 DUP3 ADD SWAP1 POP PUSH2 0x8F4 PUSH1 0x0 DUP4 ADD DUP5 PUSH2 0x7CA JUMP JUMPDEST SWAP3 SWAP2 POP POP JUMP JUMPDEST PUSH1 0x0 PUSH1 0x20 DUP3 ADD SWAP1 POP PUSH2 0x90F PUSH1 0x0 DUP4 ADD DUP5 PUSH2 0x7E8 JUMP JUMPDEST SWAP3 SWAP2 POP POP JUMP JUMPDEST PUSH1 0x0 PUSH1 0x20 DUP3 ADD SWAP1 POP PUSH2 0x92A PUSH1 0x0 DUP4 ADD DUP5 PUSH2 0x7F7 JUMP JUMPDEST SWAP3 SWAP2 POP POP JUMP JUMPDEST PUSH1 0x0 PUSH1 0x20 DUP3 ADD SWAP1 POP DUP2 DUP2 SUB PUSH1 0x0 DUP4 ADD MSTORE PUSH2 0x949 DUP2 PUSH2 0x806 JUMP JUMPDEST SWAP1 POP SWAP2 SWAP1 POP JUMP JUMPDEST PUSH1 0x0 PUSH1 0x20 DUP3 ADD SWAP1 POP DUP2 DUP2 SUB PUSH1 0x0 DUP4 ADD MSTORE PUSH2 0x969 DUP2 PUSH2 0x829 JUMP JUMPDEST SWAP1 POP SWAP2 SWAP1 POP JUMP JUMPDEST PUSH1 0x0 PUSH1 0x20 DUP3 ADD SWAP1 POP DUP2 DUP2 SUB PUSH1 0x0 DUP4 ADD MSTORE PUSH2 0x989 DUP2 PUSH2 0x84C JUMP JUMPDEST SWAP1 POP SWAP2 SWAP1 POP JUMP JUMPDEST PUSH1 0x0 PUSH1 0x20 DUP3 ADD SWAP1 POP DUP2 DUP2 SUB PUSH1 0x0 DUP4 ADD MSTORE PUSH2 0x9A9 DUP2 PUSH2 0x86F JUMP JUMPDEST SWAP1 POP SWAP2 SWAP1 POP JUMP JUMPDEST PUSH1 0x0 PUSH1 0x20 DUP3 ADD SWAP1 POP DUP2 DUP2 SUB PUSH1 0x0 DUP4 ADD MSTORE PUSH2 0x9C9 DUP2 PUSH2 0x892 JUMP JUMPDEST SWAP1 POP SWAP2 SWAP1 POP JUMP JUMPDEST PUSH1 0x0 PUSH1 0x20 DUP3 ADD SWAP1 POP PUSH2 0x9E5 PUSH1 0x0 DUP4 ADD DUP5 PUSH2 0x8B5 JUMP JUMPDEST SWAP3 SWAP2 POP POP JUMP JUMPDEST PUSH1 0x0 DUP3 DUP3 MSTORE PUSH1 0x20 DUP3 ADD SWAP1 POP SWAP3 SWAP2 POP POP JUMP JUMPDEST PUSH1 0x0 PUSH2 0xA07 DUP3 PUSH2 0xA3F JUMP JUMPDEST SWAP1 POP SWAP2 SWAP1 POP JUMP JUMPDEST PUSH1 0x0 PUSH2 0xA19 DUP3 PUSH2 0xA3F JUMP JUMPDEST SWAP1 POP SWAP2 SWAP1 POP JUMP JUMPDEST PUSH1 0x0 DUP2 ISZERO ISZERO SWAP1 POP SWAP2 SWAP1 POP JUMP JUMPDEST PUSH1 0x0 DUP2 SWAP1 POP PUSH2 0xA3A DUP3 PUSH2 0xB9D JUMP JUMPDEST SWAP2 SWAP1 POP JUMP JUMPDEST PUSH1 0x0 PUSH20 0xFFFFFFFFFFFFFFFFFFFFFFFFFFFFFFFFFFFFFFFF DUP3 AND SWAP1 POP SWAP2 SWAP1 POP JUMP JUMPDEST PUSH1 0x0 DUP2 SWAP1 POP SWAP2 SWAP1 POP JUMP JUMPDEST PUSH1 0x0 PUSH2 0xA74 DUP3 PUSH2 0xA2C JUMP JUMPDEST SWAP1 POP SWAP2 SWAP1 POP JUMP JUMPDEST PUSH32 0x4E487B7100000000000000000000000000000000000000000000000000000000 PUSH1 0x0 MSTORE PUSH1 0x21 PUSH1 0x4 MSTORE PUSH1 0x24 PUSH1 0x0 REVERT JUMPDEST PUSH32 0x43616E6E6F7420636F6E6669726D2064656C6976657279000000000000000000 PUSH1 0x0 DUP3 ADD MSTORE POP JUMP JUMPDEST PUSH32 0x43616E6E6F742077697468647261772061742074686973207374616765000000 PUSH1 0x0 DUP3 ADD MSTORE POP JUMP JUMPDEST PUSH32 0x416C726561647920506169640000000000000000000000000000000000000000 PUSH1 0x0 DUP3 ADD MSTORE POP JUMP JUMPDEST PUSH32 0x4F6E6C792062757965722063616E2063616C6C20746869732066756E6374696F PUSH1 0x0 DUP3 ADD MSTORE PUSH32 0x6E00000000000000000000000000000000000000000000000000000000000000 PUSH1 0x20 DUP3 ADD MSTORE POP JUMP JUMPDEST PUSH32 0x57726F6E6720616D6F756E74206465706F736974000000000000000000000000 PUSH1 0x0 DUP3 ADD MSTORE POP JUMP JUMPDEST PUSH1 0x4 DUP2 LT PUSH2 0xBAE JUMPI PUSH2 0xBAD PUSH2 0xA7B JUMP JUMPDEST JUMPDEST POP JUMP INVALID LOG2 PUSH5 0x6970667358 0x22 SLT KECCAK256 0x23 AND SWAP3 BLOCKHASH 0x22 0xC3 DUP2 DUP9 SELFDESTRUCT DUP9 LOG3 SHR 0xE9 LOG2 CALLDATACOPY EXP 0xB9 PUSH24 0x341AA75F71C0AF6CE53D57CF11A64736F6C634300080700 CALLER "
				},
				"gasEstimates": {
					"creation": {
						"codeDepositCost": "609400",
						"executionCost": "infinite",
						"totalCost": "infinite"
					},
					"external": {
						"buyer()": "2581",
						"confirmDelivery()": "infinite",
						"currState()": "2601",
						"deposit()": "30995",
						"initContract()": "84125",
						"isBuyerIn()": "2587",
						"isSellerIn()": "2521",
						"price()": "2451",
						"seller()": "2515",
						"withdraw()": "infinite"
					}
				},
				"methodIdentifiers": {
					"buyer()": "7150d8ae",
					"confirmDelivery()": "5e10177b",
					"currState()": "afe01043",
					"deposit()": "d0e30db0",
					"initContract()": "8203f5fe",
					"isBuyerIn()": "c4bce180",
					"isSellerIn()": "9b3bcb33",
					"price()": "a035b1fe",
					"seller()": "08551a53",
					"withdraw()": "3ccfd60b"
				}
			},
			"storageLayout": {
				"storage": [
					{
						"astId": 9,
						"contract": "_Escrow.sol:Escrow",
						"label": "currState",
						"offset": 0,
						"slot": "0",
						"type": "t_enum(State)6"
					},
					{
						"astId": 11,
						"contract": "_Escrow.sol:Escrow",
						"label": "isBuyerIn",
						"offset": 1,
						"slot": "0",
						"type": "t_bool"
					},
					{
						"astId": 13,
						"contract": "_Escrow.sol:Escrow",
						"label": "isSellerIn",
						"offset": 2,
						"slot": "0",
						"type": "t_bool"
					},
					{
						"astId": 15,
						"contract": "_Escrow.sol:Escrow",
						"label": "price",
						"offset": 0,
						"slot": "1",
						"type": "t_uint256"
					},
					{
						"astId": 17,
						"contract": "_Escrow.sol:Escrow",
						"label": "buyer",
						"offset": 0,
						"slot": "2",
						"type": "t_address"
					},
					{
						"astId": 19,
						"contract": "_Escrow.sol:Escrow",
						"label": "seller",
						"offset": 0,
						"slot": "3",
						"type": "t_address_payable"
					}
				],
				"types": {
					"t_address": {
						"encoding": "inplace",
						"label": "address",
						"numberOfBytes": "20"
					},
					"t_address_payable": {
						"encoding": "inplace",
						"label": "address payable",
						"numberOfBytes": "20"
					},
					"t_bool": {
						"encoding": "inplace",
						"label": "bool",
						"numberOfBytes": "1"
					},
					"t_enum(State)6": {
						"encoding": "inplace",
						"label": "enum Escrow.State",
						"numberOfBytes": "1"
					},
					"t_uint256": {
						"encoding": "inplace",
						"label": "uint256",
						"numberOfBytes": "32"
					}
				}
			},
			"userdoc": {
				"kind": "user",
				"methods": {},
				"version": 1
			}
		}
	}
}